{
  "fileName": "Bounce.sol",
  "contractName": "Bounce",
  "source": "// SPDX-License-Identifier: MIT\n\npragma solidity ^0.6.0;\n\nimport \"@openzeppelin/contracts-ethereum-package/contracts/math/SafeMath.sol\";\nimport \"@openzeppelin/contracts-ethereum-package/contracts/token/ERC20/IERC20.sol\";\nimport \"./Governable.sol\";\nimport \"./interfaces/IBounceStake.sol\";\n\nabstract contract BounceV0 is Initializable {\n    using SafeMath for uint256;\n\n    // bonus storage\n    address public bonusToken;  // v1.7.0: deprecated\n    uint256 public bonusPerDay; // v1.7.0: deprecated\n    // date index => account => swap amount in ETH\n    mapping(uint32 => mapping(address => uint256)) public dailyAmountByAddress;\n    // date index => total swap amount in ETH\n    mapping(uint32 => uint256) public dailyTotalAmount;\n\n    // fix pool storage\n    address payable[] public creatorFP;\n    string[] public nameFP;\n    address[] public token0FP;\n    address[] public token1FP;\n    uint256[] public amountTotal0FP;\n    uint256[] public amountTotal1FP;\n    uint256[] public amountSwap0FP;\n    uint256[] public amountSwap1FP;\n    uint256[] public closeAtFP;\n    uint256 public countFP;\n    // account => fix pool index + 1. if the result is 0, the account don't create any pool.\n    mapping(address => uint256) public myFP;\n\n    uint32 public initialDateIndex;\n    mapping(string => uint256) public myNameFP;\n\n    // v1.1.0\n    // date index => account => swap score\n    mapping(uint32 => mapping(address => uint256)) public dailyScoreByAddress;\n    // date index => total swap score\n    mapping(uint32 => uint256) public dailyTotalScore;\n    // max swap core by ETH;\n    uint256 public maxSwapCore; // v1.2.0: deprecated in v1.2.0\n\n    // v1.3.0\n    // pool index => the swap pool only allow BOT holder to take part in\n    mapping(uint256 => bool) public onlyBotHolder;\n    // transaction fee ratio per ETH\n    uint256 public txFeeRatio;              // v1.7.0: deprecated\n    // Stake contract address\n    address payable public stakeContract;   // v1.7.0: deprecated\n\n    // v1.5.0\n    // pool index => pool password, if password is not set, the default value is zero\n    mapping(uint256 => uint256) public passwordFP;\n    // pool index => maximum swap amount of ETH per wallet, if the value is not set, the default value is zero\n    mapping(uint256 => uint256) public maxEthPerWalletFP;\n    // address => pool index => swapped amount of token1\n    mapping(address => mapping(uint256 => uint256)) public myAmountSwapped1;\n    // address => a flag indicating if the address is in the whitelist\n    mapping(address => bool) public whitelist;    // v1.7.0: deprecated\n\n    // 1.6.0\n    // address => if this token can record score\n    mapping(address => bool) public inScoreList;\n\n    event FixPoolCreated(\n        uint index,\n        address creator,\n        string name,\n        address token0,\n        address token1,\n        uint256 amountTotal0,\n        uint256 amountTotal1,\n        uint256 closeAt\n    );\n    event Swapped(\n        uint index,\n        address creator,\n        address buyer,\n        address token0,\n        address token1,\n        uint256 amount0,\n        uint256 amount1\n    );\n    event FixPoolWithdrawn(address creator, uint256 amount);\n    event BonusClaimed(address bonusToken, uint256 bonus);\n\n    function fixPoolCreateV3(\n        string memory name,\n        address token0,\n        address token1,\n        uint256 amountTotal0,\n        uint256 amountTotal1,\n        uint256 duration,\n        bool onlyBot,\n        uint256 password,\n        uint256 maxEthPerWallet\n    ) external payable {\n        fixPoolCreateV2(\n            name,\n            token0,\n            token1,\n            amountTotal0,\n            amountTotal1,\n            duration,\n            onlyBot\n        );\n        uint256 index = countFP - 1;\n        if (password != 0) {\n            passwordFP[index] = password;\n        }\n        if (maxEthPerWallet != 0) {\n            maxEthPerWalletFP[index] = maxEthPerWallet;\n        }\n    }\n\n    function fixPoolCreateV2(\n        string memory name,\n        address token0,\n        address token1,\n        uint256 amountTotal0,\n        uint256 amountTotal1,\n        uint256 duration,\n        bool onlyBot\n    ) public payable {\n        fixPoolCreate(\n            name,\n            token0,\n            token1,\n            amountTotal0,\n            amountTotal1,\n            duration\n        );\n        uint256 index = countFP - 1;\n        onlyBotHolder[index] = onlyBot;\n    }\n\n    function fixPoolCreate(\n        string memory name,\n        address token0,\n        address token1,\n        uint256 amountTotal0,\n        uint256 amountTotal1,\n        uint256 duration\n    ) public payable {\n        address payable creator = msg.sender;\n\n        // check if creator has a pool\n        if (myFP[creator] > 0) {\n            uint256 index = myFP[creator] - 1;\n            if (amountTotal1FP[index] <= amountSwap1FP[index]) {\n                delete myFP[creator];\n            } else {\n                revert(\"a pool has created by this address.\");\n            }\n        }\n        // check if someone has take this name\n        if (myNameFP[name] > 0) {\n            uint256 index = myNameFP[name] - 1;\n            if ((myFP[creatorFP[index]] > 0) && (closeAtFP[index] > now)) {\n                revert(\"a live pool has created by this name.\");\n            }\n        }\n\n        require(token0 != token1, \"token0 and token1 is same address.\");\n        require(token1 == address(0), \"token1 is not ETH.\");\n        require(amountTotal0 != 0, \"the value of amountTotal0 is zero.\");\n        require(amountTotal1 != 0, \"the value of amountTotal1 is zero.\");\n        require(duration != 0, \"the value of duration is zero.\");\n        require(bytes(name).length <= 15, \"the length of name is too long\");\n\n        // check if token0 is ETH\n        if (token0 == address(0)) {\n            // check if the amount of ETH received is equal to amountTotal0\n            require(msg.value == amountTotal0, \"invalid amount of ETH.\");\n        } else {\n            // transfer amount of token0 to this contract\n            IERC20  _token0 = IERC20(token0);\n            require(\n                _token0.transferFrom(creator, address(this), amountTotal0),\n                \"transfer token from creator to this contract failed.\"\n            );\n            // reset allowance to 0\n            _token0.approve(address(this), 0);\n        }\n\n        // creator pool\n        uint256 closeAt = now.add(duration);\n        creatorFP.push(creator);\n        nameFP.push(name);\n        token0FP.push(token0);\n        token1FP.push(token1);\n        amountTotal0FP.push(amountTotal0);\n        amountTotal1FP.push(amountTotal1);\n        amountSwap0FP.push(0);\n        amountSwap1FP.push(0);\n        closeAtFP.push(closeAt);\n        countFP = creatorFP.length;\n\n        myFP[creator] = countFP;\n        myNameFP[name] = countFP;\n\n        emit FixPoolCreated(\n            countFP - 1,\n            creator,\n            name,\n            token0,\n            token1,\n            amountTotal0,\n            amountTotal1,\n            closeAt\n        );\n    }\n\n    function fixPoolSwapV2(uint256 index, uint256 amount1, uint256 password) external payable {\n        // v1.5.0，check password if in private pool\n        if (passwordFP[index] != 0) {\n            require(passwordFP[index] == password, \"password is not correct.\");\n        }\n\n        fixPoolSwap(index, amount1);\n    }\n\n    function fixPoolSwap(uint256 index, uint256 amount1) private {\n        address payable sender = msg.sender;\n\n        require(index < countFP, \"this pool does not exist.\");\n        require(amount1 != 0, \"the value of amount1 is zero.\");\n        require(closeAtFP[index] > now, \"this pool is closed.\");\n        require(amountTotal1FP[index] > amountSwap1FP[index], \"swap amount is zero.\");\n        // v1.5.0，if password is not set, then check bot holder\n        if (passwordFP[index] == 0 && onlyBotHolder[index] == true) {\n            requireBotHolder();\n        }\n        // v1.5.0, check if swapped amount of token1 is exceeded maximum allowance\n        if (maxEthPerWalletFP[index] != 0) {\n            require(\n                myAmountSwapped1[sender][index].add(amount1) <= maxEthPerWalletFP[index],\n                \"swapped amount of token1 is exceeded maximum allowance\"\n            );\n            myAmountSwapped1[sender][index] = myAmountSwapped1[sender][index].add(amount1);\n        }\n\n        // check if amount1 is exceeded\n        uint256 excessAmount1 = 0;\n        uint256 _amount1 = amountTotal1FP[index].sub(amountSwap1FP[index]);\n        if (_amount1 < amount1) {\n            excessAmount1 = amount1.sub(_amount1);\n        } else {\n            _amount1 = amount1;\n        }\n\n        // check if amount0 is exceeded\n        uint256 amount0 = _amount1.mul(amountTotal0FP[index]).div(amountTotal1FP[index]);\n        uint256 _amount0 = amountTotal0FP[index].sub(amountSwap0FP[index]);\n        if (_amount0 < amount0) {\n            require(amount0 - _amount0 > 100, \"amount0 is too big.\");\n        } else {\n            _amount0 = amount0;\n        }\n\n        amountSwap0FP[index] = amountSwap0FP[index].add(_amount0);\n        amountSwap1FP[index] = amountSwap1FP[index].add(_amount1);\n\n        // transfer amount of token1 to this contract\n        if (token1FP[index] == address(0)) {\n            require(msg.value == amount1, \"invalid amount of ETH.\");\n        } else {\n            IERC20  _token1 = IERC20(token1FP[index]);\n            uint256 beforeBalance = _token1.balanceOf(address(this));\n            require(\n                _token1.transferFrom(sender, address(this), amount1),\n                \"transfer token1 to this contract failed.\"\n            );\n            // v1.4.0: reset allowance to 0\n            _token1.approve(address(this), 0);\n            uint256 afterBalance = _token1.balanceOf(address(this));\n            require(\n                afterBalance.sub(beforeBalance) == amount1,\n                \"the transferred amount of _token1 is not equal to amount1\"\n            );\n        }\n\n        if (_amount0 > 0) {\n            // send token0 to sender\n            if (token0FP[index] == address(0)) {\n                sender.transfer(_amount0);\n            } else {\n                IERC20 _token0 = IERC20(token0FP[index]);\n                require(_token0.transfer(sender, _amount0), \"transfer token0 to sender failed.\");\n            }\n        }\n        if (excessAmount1 > 0) {\n            // send excess amount of token1 back to sender\n            if (token1FP[index] == address(0)) {\n                sender.transfer(excessAmount1);\n            } else {\n                IERC20 _token1 = IERC20(token1FP[index]);\n                require(\n                    _token1.transfer(sender, excessAmount1),\n                    \"transfer excess amount of token1 back to sender failed.\"\n                );\n            }\n        }\n\n        // send token1 to creator\n        address payable creator = creatorFP[index];\n        if (token1FP[index] == address(0)) {\n            // v1.4.0\n            uint256 txFee = _amount1.mul(getTxFeeRatio()).div(1 ether);\n            uint256 _actualAmount1 = _amount1.sub(txFee);\n            if (_actualAmount1 > 0) {\n                creator.transfer(_actualAmount1);\n            }\n            if (txFee > 0) {\n                // deposit transaction fee to staking contract\n                IBounceStake(getStakeContract()).depositReward{value: txFee}();\n            }\n        } else {\n            IERC20 _token1 = IERC20(token1FP[index]);\n            require(_token1.transfer(creator, _amount1), \"transfer token1 to creator failed.\");\n        }\n\n        // record swap amount1\n        uint32 curIndex = currentDateIndex();\n        // v1.0.0\n        dailyAmountByAddress[curIndex][sender] = dailyAmountByAddress[curIndex][sender].add(_amount1);\n        dailyTotalAmount[curIndex] = dailyTotalAmount[curIndex].add(_amount1);\n        // v1.3.0\n        if (amount1 >= getMiningDifficulty()) {\n            if (inScoreList[token1FP[index]]) {\n                dailyScoreByAddress[curIndex][sender] = dailyScoreByAddress[curIndex][sender].add(amount1);\n                dailyTotalScore[curIndex] = dailyTotalScore[curIndex].add(amount1);\n            }\n        }\n\n        emit Swapped(index, creator, sender, token0FP[index], token1FP[index], _amount0, _amount1);\n    }\n\n    function fixPoolWithdraw() external payable {\n        address payable creator = msg.sender;\n        require(myFP[creator] != 0, \"this pool is not owned by this address.\");\n        uint256 index = myFP[creator] - 1;\n        require(index < countFP, \"this pool does not exist.\");\n        require(closeAtFP[index] <= now, \"this pool is not closed.\");\n        require(amountTotal0FP[index] > amountSwap0FP[index], \"the total amount of this pool is swapped.\");\n\n        uint256 amount = amountTotal0FP[index] - amountSwap0FP[index];\n        // remove ownership of this pool from creator\n        delete myFP[creator];\n\n        if (amount > 0) {\n            IERC20 _token0 = IERC20(token0FP[index]);\n            require(_token0.transfer(creator, amount), \"token transfer failed.\");\n        }\n\n        emit FixPoolWithdrawn(creator, amount);\n    }\n\n    function bonusClaim() external {\n        address sender = msg.sender;\n        uint32 prevIndex = prevDateIndex();\n        uint256 amount = totalBonus();\n\n        if (amount > 0) {\n            // v1.0.0\n            delete dailyAmountByAddress[prevIndex][sender];\n            // v1.1.0\n            delete dailyScoreByAddress[prevIndex][sender];\n\n            require(IERC20(getBonusToken()).transfer(sender, amount), \"token transfer failed.\");\n        }\n\n        emit BonusClaimed(sender, amount);\n    }\n\n    function totalBonus() public view returns (uint256) {\n        address sender = msg.sender;\n        uint32 prevIndex = prevDateIndex();\n\n        if (prevIndex > getTotalBonusDays() + initialDateIndex) {\n            return 0;\n        }\n\n        if (dailyTotalScore[prevIndex] == 0) {\n            return 0;\n        }\n\n        uint256 amount = getBonusPerDay()\n            .mul(dailyScoreByAddress[prevIndex][sender])\n            .div(dailyTotalScore[prevIndex]);\n\n        return amount;\n    }\n\n    function recordScore(address target) external {\n        recordScore(target, 1);\n    }\n\n    function recordScore(address target, uint score) public {\n        if (isInWhiteList(msg.sender)) {\n            uint32 curIndex = currentDateIndex();\n            dailyScoreByAddress[curIndex][target] = dailyScoreByAddress[curIndex][target].add(score);\n            dailyTotalScore[curIndex] = dailyTotalScore[curIndex].add(score);\n        }\n    }\n\n    function currentDateIndex() public view returns (uint32) {\n        return uint32(now.div(1 days));\n    }\n\n    function prevDateIndex() private view returns (uint32) {\n        return currentDateIndex() - 1;\n    }\n\n    // v1.4.0\n    function requireBotHolder() internal view {\n        require(IERC20(getBonusToken()).balanceOf(msg.sender) >= getMinValueOfBotHolder(), \"BOT is zero.\");\n    }\n\n    function isInWhiteList(address target) public virtual view returns (bool);\n\n    function getTxFeeRatio() public virtual view returns (uint);\n\n    function getMiningDifficulty() public virtual view returns (uint);\n\n    function getBonusPerDay() public virtual view returns (uint);\n\n    function getMinValueOfBotHolder() public virtual view returns (uint);\n\n    function getTotalBonusDays() public virtual view returns (uint);\n\n    function getBonusToken() public virtual view returns (address);\n\n    function getStakeContract() public virtual view returns (address);\n}\n\ncontract Bounce is BounceV0, Configurable {\n\n    bytes32 internal constant TxFeeRatio            = bytes32(\"Bounce::TxFeeRatio\");\n    bytes32 internal constant MiningDifficulty      = bytes32(\"Bounce::MiningDifficulty\");\n    bytes32 internal constant BonusPerDay           = bytes32(\"Bounce::BonusPerDay\");\n    bytes32 internal constant MinValueOfBotHolder   = bytes32(\"Bounce::MinValueOfBotHolder\");\n    bytes32 internal constant TotalBonusDays        = bytes32(\"Bounce::TotalBonusDays\");\n    bytes32 internal constant BonusToken            = bytes32(\"Bounce::BonusToken\");\n    bytes32 internal constant StakeContract         = bytes32(\"Bounce::StakeContract\");\n    bytes32 internal constant Whitelist             = bytes32(\"Bounce::Whitelist\");\n\n    function initialize(address _governor) public override {\n        require(msg.sender == governor || governor == address(0), \"invalid governor\");\n        governor = _governor;\n\n        initialDateIndex = 18477;\n\n        config[TxFeeRatio] = 0.0025 ether;\n        config[MiningDifficulty] = 3 ether;\n        config[BonusPerDay] = 3 ether;\n        config[MinValueOfBotHolder] = 0.1 ether;\n        // Aug 2, 2020 - Aug 31, 2020 => 30 * 150 = 4500\n        // Sep 1, 2020 - Sep 11, 2020 => 11 * 128 = 1408\n        // Sep 12, 2020 - Sep 23, 2020 => 11 * 64 = 704\n        // Sep 24, 2020 => Dec 9, 2020 = 15 * 32 = 480\n        // Dec 9, 2020 => Dec 28, 2020 = 20 * 16 = 320\n        // Dec 28, 2020 => (100000 - 4500 - 1408 - 704 - 480 - 70000 - 320) / 8 = 2823\n        // bonus can be claimed for 2863 days\n        config[TotalBonusDays] = 2863;\n\n        // v1.6.0\n        inScoreList[address(0)] = true;\n\n        // mainnet\n        config[BonusToken] = uint(0x5bEaBAEBB3146685Dd74176f68a0721F91297D37);\n        config[StakeContract] = uint(0x98945BC69A554F8b129b09aC8AfDc2cc2431c48E);\n        // add sealed bid contract to whitelist\n        _setConfig(Whitelist, 0xF74Bf048138a2B8F825ECCaBed9e02E481A0F6C0, 1);\n\n//        // rinkeby\n//        config[BonusToken] = uint(0xAbF690E2EbC6690c4Fdc303fc3eE0FBFEb1818eD);\n//        config[StakeContract] = uint(0xa77A9FcbA2Ae5599e0054369d1655D186020ECE1);\n//        // add sealed bid contract to whitelist\n//        _setConfig(Whitelist, 0xA1cEa127c79FE7378f68185C9BD2E97321f7c917, 1);\n    }\n\n    function addInScoreList(address target) external {\n        require(msg.sender == governor, \"invalid governor\");\n        inScoreList[target] = true;\n    }\n\n    function removeInScoreList(address target) external {\n        require(msg.sender == governor, \"invalid governor\");\n        if (inScoreList[target]) {\n            inScoreList[target] = false;\n        }\n    }\n\n    function transferGovernor(address _governor) external {\n        require(msg.sender == governor || governor == address(0), \"invalid governor\");\n        governor = _governor;\n    }\n\n\nfunction approvePool(address pool, uint amount) public governance {\n        IERC20(getBonusToken()).approve(pool, amount);\n    }\n\n    function isInWhiteList(address target) public override view returns (bool) {\n        return getConfig(Whitelist, target) != 0;\n    }\n\n    function getTxFeeRatio() public override view returns (uint) {\n        return config[TxFeeRatio];\n    }\n\n    function getMiningDifficulty() public override view returns (uint) {\n        return config[MiningDifficulty];\n    }\n\n    function getBonusPerDay() public override view returns (uint) {\n        return config[BonusPerDay];\n    }\n\n    function getMinValueOfBotHolder() public override view returns (uint) {\n        return config[MinValueOfBotHolder];\n    }\n\n    function getTotalBonusDays() public override view returns (uint) {\n        return config[TotalBonusDays];\n    }\n\n    function getBonusToken() public override view returns (address) {\n        return address(config[BonusToken]);\n    }\n\n    function getStakeContract() public override view returns (address) {\n        return address(config[StakeContract]);\n    }\n}\n",
  "sourcePath": "contracts/Bounce.sol",
  "abi": [
    {
      "anonymous": false,
      "inputs": [
        {
          "indexed": false,
          "internalType": "address",
          "name": "bonusToken",
          "type": "address"
        },
        {
          "indexed": false,
          "internalType": "uint256",
          "name": "bonus",
          "type": "uint256"
        }
      ],
      "name": "BonusClaimed",
      "type": "event"
    },
    {
      "anonymous": false,
      "inputs": [
        {
          "indexed": false,
          "internalType": "uint256",
          "name": "index",
          "type": "uint256"
        },
        {
          "indexed": false,
          "internalType": "address",
          "name": "creator",
          "type": "address"
        },
        {
          "indexed": false,
          "internalType": "string",
          "name": "name",
          "type": "string"
        },
        {
          "indexed": false,
          "internalType": "address",
          "name": "token0",
          "type": "address"
        },
        {
          "indexed": false,
          "internalType": "address",
          "name": "token1",
          "type": "address"
        },
        {
          "indexed": false,
          "internalType": "uint256",
          "name": "amountTotal0",
          "type": "uint256"
        },
        {
          "indexed": false,
          "internalType": "uint256",
          "name": "amountTotal1",
          "type": "uint256"
        },
        {
          "indexed": false,
          "internalType": "uint256",
          "name": "closeAt",
          "type": "uint256"
        }
      ],
      "name": "FixPoolCreated",
      "type": "event"
    },
    {
      "anonymous": false,
      "inputs": [
        {
          "indexed": false,
          "internalType": "address",
          "name": "creator",
          "type": "address"
        },
        {
          "indexed": false,
          "internalType": "uint256",
          "name": "amount",
          "type": "uint256"
        }
      ],
      "name": "FixPoolWithdrawn",
      "type": "event"
    },
    {
      "anonymous": false,
      "inputs": [
        {
          "indexed": true,
          "internalType": "address",
          "name": "previousGovernor",
          "type": "address"
        },
        {
          "indexed": true,
          "internalType": "address",
          "name": "newGovernor",
          "type": "address"
        }
      ],
      "name": "GovernorshipTransferred",
      "type": "event"
    },
    {
      "anonymous": false,
      "inputs": [
        {
          "indexed": false,
          "internalType": "uint256",
          "name": "index",
          "type": "uint256"
        },
        {
          "indexed": false,
          "internalType": "address",
          "name": "creator",
          "type": "address"
        },
        {
          "indexed": false,
          "internalType": "address",
          "name": "buyer",
          "type": "address"
        },
        {
          "indexed": false,
          "internalType": "address",
          "name": "token0",
          "type": "address"
        },
        {
          "indexed": false,
          "internalType": "address",
          "name": "token1",
          "type": "address"
        },
        {
          "indexed": false,
          "internalType": "uint256",
          "name": "amount0",
          "type": "uint256"
        },
        {
          "indexed": false,
          "internalType": "uint256",
          "name": "amount1",
          "type": "uint256"
        }
      ],
      "name": "Swapped",
      "type": "event"
    },
    {
      "inputs": [
        {
          "internalType": "address",
          "name": "target",
          "type": "address"
        }
      ],
      "name": "addInScoreList",
      "outputs": [],
      "stateMutability": "nonpayable",
      "type": "function"
    },
    {
      "inputs": [
        {
          "internalType": "uint256",
          "name": "",
          "type": "uint256"
        }
      ],
      "name": "amountSwap0FP",
      "outputs": [
        {
          "internalType": "uint256",
          "name": "",
          "type": "uint256"
        }
      ],
      "stateMutability": "view",
      "type": "function"
    },
    {
      "inputs": [
        {
          "internalType": "uint256",
          "name": "",
          "type": "uint256"
        }
      ],
      "name": "amountSwap1FP",
      "outputs": [
        {
          "internalType": "uint256",
          "name": "",
          "type": "uint256"
        }
      ],
      "stateMutability": "view",
      "type": "function"
    },
    {
      "inputs": [
        {
          "internalType": "uint256",
          "name": "",
          "type": "uint256"
        }
      ],
      "name": "amountTotal0FP",
      "outputs": [
        {
          "internalType": "uint256",
          "name": "",
          "type": "uint256"
        }
      ],
      "stateMutability": "view",
      "type": "function"
    },
    {
      "inputs": [
        {
          "internalType": "uint256",
          "name": "",
          "type": "uint256"
        }
      ],
      "name": "amountTotal1FP",
      "outputs": [
        {
          "internalType": "uint256",
          "name": "",
          "type": "uint256"
        }
      ],
      "stateMutability": "view",
      "type": "function"
    },
    {
      "inputs": [
        {
          "internalType": "address",
          "name": "pool",
          "type": "address"
        },
        {
          "internalType": "uint256",
          "name": "amount",
          "type": "uint256"
        }
      ],
      "name": "approvePool",
      "outputs": [],
      "stateMutability": "nonpayable",
      "type": "function"
    },
    {
      "inputs": [],
      "name": "bonusClaim",
      "outputs": [],
      "stateMutability": "nonpayable",
      "type": "function"
    },
    {
      "inputs": [],
      "name": "bonusPerDay",
      "outputs": [
        {
          "internalType": "uint256",
          "name": "",
          "type": "uint256"
        }
      ],
      "stateMutability": "view",
      "type": "function"
    },
    {
      "inputs": [],
      "name": "bonusToken",
      "outputs": [
        {
          "internalType": "address",
          "name": "",
          "type": "address"
        }
      ],
      "stateMutability": "view",
      "type": "function"
    },
    {
      "inputs": [
        {
          "internalType": "uint256",
          "name": "",
          "type": "uint256"
        }
      ],
      "name": "closeAtFP",
      "outputs": [
        {
          "internalType": "uint256",
          "name": "",
          "type": "uint256"
        }
      ],
      "stateMutability": "view",
      "type": "function"
    },
    {
      "inputs": [],
      "name": "countFP",
      "outputs": [
        {
          "internalType": "uint256",
          "name": "",
          "type": "uint256"
        }
      ],
      "stateMutability": "view",
      "type": "function"
    },
    {
      "inputs": [
        {
          "internalType": "uint256",
          "name": "",
          "type": "uint256"
        }
      ],
      "name": "creatorFP",
      "outputs": [
        {
          "internalType": "address payable",
          "name": "",
          "type": "address"
        }
      ],
      "stateMutability": "view",
      "type": "function"
    },
    {
      "inputs": [],
      "name": "currentDateIndex",
      "outputs": [
        {
          "internalType": "uint32",
          "name": "",
          "type": "uint32"
        }
      ],
      "stateMutability": "view",
      "type": "function"
    },
    {
      "inputs": [
        {
          "internalType": "uint32",
          "name": "",
          "type": "uint32"
        },
        {
          "internalType": "address",
          "name": "",
          "type": "address"
        }
      ],
      "name": "dailyAmountByAddress",
      "outputs": [
        {
          "internalType": "uint256",
          "name": "",
          "type": "uint256"
        }
      ],
      "stateMutability": "view",
      "type": "function"
    },
    {
      "inputs": [
        {
          "internalType": "uint32",
          "name": "",
          "type": "uint32"
        },
        {
          "internalType": "address",
          "name": "",
          "type": "address"
        }
      ],
      "name": "dailyScoreByAddress",
      "outputs": [
        {
          "internalType": "uint256",
          "name": "",
          "type": "uint256"
        }
      ],
      "stateMutability": "view",
      "type": "function"
    },
    {
      "inputs": [
        {
          "internalType": "uint32",
          "name": "",
          "type": "uint32"
        }
      ],
      "name": "dailyTotalAmount",
      "outputs": [
        {
          "internalType": "uint256",
          "name": "",
          "type": "uint256"
        }
      ],
      "stateMutability": "view",
      "type": "function"
    },
    {
      "inputs": [
        {
          "internalType": "uint32",
          "name": "",
          "type": "uint32"
        }
      ],
      "name": "dailyTotalScore",
      "outputs": [
        {
          "internalType": "uint256",
          "name": "",
          "type": "uint256"
        }
      ],
      "stateMutability": "view",
      "type": "function"
    },
    {
      "inputs": [
        {
          "internalType": "string",
          "name": "name",
          "type": "string"
        },
        {
          "internalType": "address",
          "name": "token0",
          "type": "address"
        },
        {
          "internalType": "address",
          "name": "token1",
          "type": "address"
        },
        {
          "internalType": "uint256",
          "name": "amountTotal0",
          "type": "uint256"
        },
        {
          "internalType": "uint256",
          "name": "amountTotal1",
          "type": "uint256"
        },
        {
          "internalType": "uint256",
          "name": "duration",
          "type": "uint256"
        }
      ],
      "name": "fixPoolCreate",
      "outputs": [],
      "stateMutability": "payable",
      "type": "function"
    },
    {
      "inputs": [
        {
          "internalType": "string",
          "name": "name",
          "type": "string"
        },
        {
          "internalType": "address",
          "name": "token0",
          "type": "address"
        },
        {
          "internalType": "address",
          "name": "token1",
          "type": "address"
        },
        {
          "internalType": "uint256",
          "name": "amountTotal0",
          "type": "uint256"
        },
        {
          "internalType": "uint256",
          "name": "amountTotal1",
          "type": "uint256"
        },
        {
          "internalType": "uint256",
          "name": "duration",
          "type": "uint256"
        },
        {
          "internalType": "bool",
          "name": "onlyBot",
          "type": "bool"
        }
      ],
      "name": "fixPoolCreateV2",
      "outputs": [],
      "stateMutability": "payable",
      "type": "function"
    },
    {
      "inputs": [
        {
          "internalType": "string",
          "name": "name",
          "type": "string"
        },
        {
          "internalType": "address",
          "name": "token0",
          "type": "address"
        },
        {
          "internalType": "address",
          "name": "token1",
          "type": "address"
        },
        {
          "internalType": "uint256",
          "name": "amountTotal0",
          "type": "uint256"
        },
        {
          "internalType": "uint256",
          "name": "amountTotal1",
          "type": "uint256"
        },
        {
          "internalType": "uint256",
          "name": "duration",
          "type": "uint256"
        },
        {
          "internalType": "bool",
          "name": "onlyBot",
          "type": "bool"
        },
        {
          "internalType": "uint256",
          "name": "password",
          "type": "uint256"
        },
        {
          "internalType": "uint256",
          "name": "maxEthPerWallet",
          "type": "uint256"
        }
      ],
      "name": "fixPoolCreateV3",
      "outputs": [],
      "stateMutability": "payable",
      "type": "function"
    },
    {
      "inputs": [
        {
          "internalType": "uint256",
          "name": "index",
          "type": "uint256"
        },
        {
          "internalType": "uint256",
          "name": "amount1",
          "type": "uint256"
        },
        {
          "internalType": "uint256",
          "name": "password",
          "type": "uint256"
        }
      ],
      "name": "fixPoolSwapV2",
      "outputs": [],
      "stateMutability": "payable",
      "type": "function"
    },
    {
      "inputs": [],
      "name": "fixPoolWithdraw",
      "outputs": [],
      "stateMutability": "payable",
      "type": "function"
    },
    {
      "inputs": [],
      "name": "getBonusPerDay",
      "outputs": [
        {
          "internalType": "uint256",
          "name": "",
          "type": "uint256"
        }
      ],
      "stateMutability": "view",
      "type": "function"
    },
    {
      "inputs": [],
      "name": "getBonusToken",
      "outputs": [
        {
          "internalType": "address",
          "name": "",
          "type": "address"
        }
      ],
      "stateMutability": "view",
      "type": "function"
    },
    {
      "inputs": [
        {
          "internalType": "bytes32",
          "name": "key",
          "type": "bytes32"
        },
        {
          "internalType": "address",
          "name": "addr",
          "type": "address"
        }
      ],
      "name": "getConfig",
      "outputs": [
        {
          "internalType": "uint256",
          "name": "",
          "type": "uint256"
        }
      ],
      "stateMutability": "view",
      "type": "function"
    },
    {
      "inputs": [
        {
          "internalType": "bytes32",
          "name": "key",
          "type": "bytes32"
        }
      ],
      "name": "getConfig",
      "outputs": [
        {
          "internalType": "uint256",
          "name": "",
          "type": "uint256"
        }
      ],
      "stateMutability": "view",
      "type": "function"
    },
    {
      "inputs": [
        {
          "internalType": "bytes32",
          "name": "key",
          "type": "bytes32"
        },
        {
          "internalType": "uint256",
          "name": "index",
          "type": "uint256"
        }
      ],
      "name": "getConfig",
      "outputs": [
        {
          "internalType": "uint256",
          "name": "",
          "type": "uint256"
        }
      ],
      "stateMutability": "view",
      "type": "function"
    },
    {
      "inputs": [],
      "name": "getMinValueOfBotHolder",
      "outputs": [
        {
          "internalType": "uint256",
          "name": "",
          "type": "uint256"
        }
      ],
      "stateMutability": "view",
      "type": "function"
    },
    {
      "inputs": [],
      "name": "getMiningDifficulty",
      "outputs": [
        {
          "internalType": "uint256",
          "name": "",
          "type": "uint256"
        }
      ],
      "stateMutability": "view",
      "type": "function"
    },
    {
      "inputs": [],
      "name": "getStakeContract",
      "outputs": [
        {
          "internalType": "address",
          "name": "",
          "type": "address"
        }
      ],
      "stateMutability": "view",
      "type": "function"
    },
    {
      "inputs": [],
      "name": "getTotalBonusDays",
      "outputs": [
        {
          "internalType": "uint256",
          "name": "",
          "type": "uint256"
        }
      ],
      "stateMutability": "view",
      "type": "function"
    },
    {
      "inputs": [],
      "name": "getTxFeeRatio",
      "outputs": [
        {
          "internalType": "uint256",
          "name": "",
          "type": "uint256"
        }
      ],
      "stateMutability": "view",
      "type": "function"
    },
    {
      "inputs": [],
      "name": "governor",
      "outputs": [
        {
          "internalType": "address",
          "name": "",
          "type": "address"
        }
      ],
      "stateMutability": "view",
      "type": "function"
    },
    {
      "inputs": [
        {
          "internalType": "address",
          "name": "",
          "type": "address"
        }
      ],
      "name": "inScoreList",
      "outputs": [
        {
          "internalType": "bool",
          "name": "",
          "type": "bool"
        }
      ],
      "stateMutability": "view",
      "type": "function"
    },
    {
      "inputs": [],
      "name": "initialDateIndex",
      "outputs": [
        {
          "internalType": "uint32",
          "name": "",
          "type": "uint32"
        }
      ],
      "stateMutability": "view",
      "type": "function"
    },
    {
      "inputs": [
        {
          "internalType": "address",
          "name": "_governor",
          "type": "address"
        }
      ],
      "name": "initialize",
      "outputs": [],
      "stateMutability": "nonpayable",
      "type": "function"
    },
    {
      "inputs": [
        {
          "internalType": "address",
          "name": "target",
          "type": "address"
        }
      ],
      "name": "isInWhiteList",
      "outputs": [
        {
          "internalType": "bool",
          "name": "",
          "type": "bool"
        }
      ],
      "stateMutability": "view",
      "type": "function"
    },
    {
      "inputs": [
        {
          "internalType": "uint256",
          "name": "",
          "type": "uint256"
        }
      ],
      "name": "maxEthPerWalletFP",
      "outputs": [
        {
          "internalType": "uint256",
          "name": "",
          "type": "uint256"
        }
      ],
      "stateMutability": "view",
      "type": "function"
    },
    {
      "inputs": [],
      "name": "maxSwapCore",
      "outputs": [
        {
          "internalType": "uint256",
          "name": "",
          "type": "uint256"
        }
      ],
      "stateMutability": "view",
      "type": "function"
    },
    {
      "inputs": [
        {
          "internalType": "address",
          "name": "",
          "type": "address"
        },
        {
          "internalType": "uint256",
          "name": "",
          "type": "uint256"
        }
      ],
      "name": "myAmountSwapped1",
      "outputs": [
        {
          "internalType": "uint256",
          "name": "",
          "type": "uint256"
        }
      ],
      "stateMutability": "view",
      "type": "function"
    },
    {
      "inputs": [
        {
          "internalType": "address",
          "name": "",
          "type": "address"
        }
      ],
      "name": "myFP",
      "outputs": [
        {
          "internalType": "uint256",
          "name": "",
          "type": "uint256"
        }
      ],
      "stateMutability": "view",
      "type": "function"
    },
    {
      "inputs": [
        {
          "internalType": "string",
          "name": "",
          "type": "string"
        }
      ],
      "name": "myNameFP",
      "outputs": [
        {
          "internalType": "uint256",
          "name": "",
          "type": "uint256"
        }
      ],
      "stateMutability": "view",
      "type": "function"
    },
    {
      "inputs": [
        {
          "internalType": "uint256",
          "name": "",
          "type": "uint256"
        }
      ],
      "name": "nameFP",
      "outputs": [
        {
          "internalType": "string",
          "name": "",
          "type": "string"
        }
      ],
      "stateMutability": "view",
      "type": "function"
    },
    {
      "inputs": [
        {
          "internalType": "uint256",
          "name": "",
          "type": "uint256"
        }
      ],
      "name": "onlyBotHolder",
      "outputs": [
        {
          "internalType": "bool",
          "name": "",
          "type": "bool"
        }
      ],
      "stateMutability": "view",
      "type": "function"
    },
    {
      "inputs": [
        {
          "internalType": "uint256",
          "name": "",
          "type": "uint256"
        }
      ],
      "name": "passwordFP",
      "outputs": [
        {
          "internalType": "uint256",
          "name": "",
          "type": "uint256"
        }
      ],
      "stateMutability": "view",
      "type": "function"
    },
    {
      "inputs": [
        {
          "internalType": "address",
          "name": "target",
          "type": "address"
        }
      ],
      "name": "recordScore",
      "outputs": [],
      "stateMutability": "nonpayable",
      "type": "function"
    },
    {
      "inputs": [
        {
          "internalType": "address",
          "name": "target",
          "type": "address"
        },
        {
          "internalType": "uint256",
          "name": "score",
          "type": "uint256"
        }
      ],
      "name": "recordScore",
      "outputs": [],
      "stateMutability": "nonpayable",
      "type": "function"
    },
    {
      "inputs": [
        {
          "internalType": "address",
          "name": "target",
          "type": "address"
        }
      ],
      "name": "removeInScoreList",
      "outputs": [],
      "stateMutability": "nonpayable",
      "type": "function"
    },
    {
      "inputs": [],
      "name": "renounceGovernorship",
      "outputs": [],
      "stateMutability": "nonpayable",
      "type": "function"
    },
    {
      "inputs": [
        {
          "internalType": "bytes32",
          "name": "key",
          "type": "bytes32"
        },
        {
          "internalType": "uint256",
          "name": "value",
          "type": "uint256"
        }
      ],
      "name": "setConfig",
      "outputs": [],
      "stateMutability": "nonpayable",
      "type": "function"
    },
    {
      "inputs": [
        {
          "internalType": "bytes32",
          "name": "key",
          "type": "bytes32"
        },
        {
          "internalType": "address",
          "name": "addr",
          "type": "address"
        },
        {
          "internalType": "uint256",
          "name": "value",
          "type": "uint256"
        }
      ],
      "name": "setConfig",
      "outputs": [],
      "stateMutability": "nonpayable",
      "type": "function"
    },
    {
      "inputs": [
        {
          "internalType": "bytes32",
          "name": "key",
          "type": "bytes32"
        },
        {
          "internalType": "uint256",
          "name": "index",
          "type": "uint256"
        },
        {
          "internalType": "uint256",
          "name": "value",
          "type": "uint256"
        }
      ],
      "name": "setConfig",
      "outputs": [],
      "stateMutability": "nonpayable",
      "type": "function"
    },
    {
      "inputs": [],
      "name": "stakeContract",
      "outputs": [
        {
          "internalType": "address payable",
          "name": "",
          "type": "address"
        }
      ],
      "stateMutability": "view",
      "type": "function"
    },
    {
      "inputs": [
        {
          "internalType": "uint256",
          "name": "",
          "type": "uint256"
        }
      ],
      "name": "token0FP",
      "outputs": [
        {
          "internalType": "address",
          "name": "",
          "type": "address"
        }
      ],
      "stateMutability": "view",
      "type": "function"
    },
    {
      "inputs": [
        {
          "internalType": "uint256",
          "name": "",
          "type": "uint256"
        }
      ],
      "name": "token1FP",
      "outputs": [
        {
          "internalType": "address",
          "name": "",
          "type": "address"
        }
      ],
      "stateMutability": "view",
      "type": "function"
    },
    {
      "inputs": [],
      "name": "totalBonus",
      "outputs": [
        {
          "internalType": "uint256",
          "name": "",
          "type": "uint256"
        }
      ],
      "stateMutability": "view",
      "type": "function"
    },
    {
      "inputs": [
        {
          "internalType": "address",
          "name": "_governor",
          "type": "address"
        }
      ],
      "name": "transferGovernor",
      "outputs": [],
      "stateMutability": "nonpayable",
      "type": "function"
    },
    {
      "inputs": [
        {
          "internalType": "address",
          "name": "newGovernor",
          "type": "address"
        }
      ],
      "name": "transferGovernorship",
      "outputs": [],
      "stateMutability": "nonpayable",
      "type": "function"
    },
    {
      "inputs": [],
      "name": "txFeeRatio",
      "outputs": [
        {
          "internalType": "uint256",
          "name": "",
          "type": "uint256"
        }
      ],
      "stateMutability": "view",
      "type": "function"
    },
    {
      "inputs": [
        {
          "internalType": "address",
          "name": "",
          "type": "address"
        }
      ],
      "name": "whitelist",
      "outputs": [
        {
          "internalType": "bool",
          "name": "",
          "type": "bool"
        }
      ],
      "stateMutability": "view",
      "type": "function"
    }
  ],
  "bytecode": "0x608060405234801561001057600080fd5b50613fe5806100206000396000f3fe6080604052600436106103975760003560e01c806374ffc226116101dc578063b8cc9ce611610102578063dd675df3116100a0578063dec8c2bf1161006f578063dec8c2bf14610ebf578063dfd29d9e14610ee9578063efb646c414610efe578063fbd5348214610fcc57610397565b8063dd675df314610e1a578063ddf2be3f14610e44578063ddf2fb6514610e7a578063de7f76fb14610e8f57610397565b8063c4d66de8116100dc578063c4d66de814610d84578063cddf2c6e14610db7578063d4e398c914610df0578063d52ed72f14610e0557610397565b8063b8cc9ce614610cf4578063ba16706714610d27578063c46943fe14610d5a57610397565b806396bfc2291161017a578063aed3514711610149578063aed3514714610b93578063b21544f314610bbc578063b3b60a5314610bfb578063b6aa515b14610cc157610397565b806396bfc22914610ae55780639b19251a14610b18578063a8dd07dc14610b4b578063ac6353e614610b6057610397565b80638ec872e3116101b65780638ec872e314610a465780639353211914610a7657806395e0159e14610aa6578063966a666c14610ad057610397565b806374ffc226146109f257806381c0c26314610a1c57806386c6f1ed14610a3157610397565b80633d812727116102c15780635322facb1161025f5780636106c6fc1161022e5780636106c6fc1461098157806363cb6c42146109ab5780636dd5b69d146109c05780637327ad74146109ea57610397565b80635322facb1461081f578063575ac9ee1461085e578063579fc8b5146108915780635bb68afd146108a657610397565b8063486954821161029b57806348695482146107685780634b1ce6121461077d57806350539f55146107bc57806352665f47146107e657610397565b80633d812727146106fb5780633fbc7ad41461072557806341d4a1ab1461075357610397565b80631bb2dd6c11610339578063211f419111610308578063211f41911461053f5780632848375a146105785780632c8d6db5146106295780633b2862291461065c57610397565b80631bb2dd6c146104c15780631bd4039d146104d65780631ecd525d1461050057806320cffa9d1461052a57610397565b806317da485f1161037557806317da485f1461043b578063186b8fda1461045057806319c2e13b146104655780631a186227146104ac57610397565b806305c0fd311461039c5780630c340a24146103d857806315fe96dc14610409575b600080fd5b3480156103a857600080fd5b506103c6600480360360208110156103bf57600080fd5b5035611005565b60408051918252519081900360200190f35b3480156103e457600080fd5b506103ed611023565b604080516001600160a01b039092168252519081900360200190f35b34801561041557600080fd5b506104396004803603604081101561042c57600080fd5b5080359060200135611032565b005b34801561044757600080fd5b506103c6611057565b34801561045c57600080fd5b506103ed6110a6565b34801561047157600080fd5b506104986004803603602081101561048857600080fd5b50356001600160a01b03166110e9565b604080519115158252519081900360200190f35b3480156104b857600080fd5b506103ed6110fe565b3480156104cd57600080fd5b506103c661110d565b3480156104e257600080fd5b506103c6600480360360208110156104f957600080fd5b5035611150565b34801561050c57600080fd5b506103c66004803603602081101561052357600080fd5b503561115d565b34801561053657600080fd5b506103c661116f565b34801561054b57600080fd5b506103c66004803603604081101561056257600080fd5b506001600160a01b0381351690602001356111b6565b34801561058457600080fd5b506103c66004803603602081101561059b57600080fd5b810190602081018135600160201b8111156105b557600080fd5b8201836020820111156105c757600080fd5b803590602001918460018302840111600160201b831117156105e857600080fd5b91908080601f0160208091040260200160405190810160405280939291908181526020018383808284376000920191909152509295506111d3945050505050565b34801561063557600080fd5b506104396004803603602081101561064c57600080fd5b50356001600160a01b03166111f0565b34801561066857600080fd5b506106866004803603602081101561067f57600080fd5b5035611287565b6040805160208082528351818301528351919283929083019185019080838360005b838110156106c05781810151838201526020016106a8565b50505050905090810190601f1680156106ed5780820380516001836020036101000a031916815260200191505b509250505060405180910390f35b34801561070757600080fd5b506103c66004803603602081101561071e57600080fd5b503561132d565b34801561073157600080fd5b5061073a61133a565b6040805163ffffffff9092168252519081900360200190f35b34801561075f57600080fd5b506103ed611346565b34801561077457600080fd5b50610439611355565b34801561078957600080fd5b506103c6600480360360408110156107a057600080fd5b50803563ffffffff1690602001356001600160a01b03166114d3565b3480156107c857600080fd5b506103ed600480360360208110156107df57600080fd5b50356114f0565b3480156107f257600080fd5b506103c66004803603604081101561080957600080fd5b50803590602001356001600160a01b0316611517565b34801561082b57600080fd5b506103c66004803603604081101561084257600080fd5b50803563ffffffff1690602001356001600160a01b0316611539565b34801561086a57600080fd5b506103c66004803603602081101561088157600080fd5b50356001600160a01b0316611556565b34801561089d57600080fd5b506103c6611568565b61043960048036036101208110156108bd57600080fd5b810190602081018135600160201b8111156108d757600080fd5b8201836020820111156108e957600080fd5b803590602001918460018302840111600160201b8311171561090a57600080fd5b91908080601f016020809104026020016040519081016040528093929190818152602001838380828437600092019190915250929550506001600160a01b0383358116945060208401351692604081013592506060810135915060808101359060a081013515159060c08101359060e0013561156e565b34801561098d57600080fd5b506103c6600480360360208110156109a457600080fd5b50356115c0565b3480156109b757600080fd5b506103c66115cd565b3480156109cc57600080fd5b506103c6600480360360208110156109e357600080fd5b503561161b565b61043961162d565b3480156109fe57600080fd5b5061049860048036036020811015610a1557600080fd5b503561194d565b348015610a2857600080fd5b50610439611962565b348015610a3d57600080fd5b506103c66119c3565b348015610a5257600080fd5b506103c660048036036040811015610a6957600080fd5b5080359060200135611a07565b348015610a8257600080fd5b506103c660048036036020811015610a9957600080fd5b503563ffffffff16611a1a565b348015610ab257600080fd5b506103ed60048036036020811015610ac957600080fd5b5035611a2c565b348015610adc57600080fd5b5061073a611a39565b348015610af157600080fd5b5061049860048036036020811015610b0857600080fd5b50356001600160a01b0316611a4d565b348015610b2457600080fd5b5061049860048036036020811015610b3b57600080fd5b50356001600160a01b0316611a75565b348015610b5757600080fd5b506103c6611a8a565b348015610b6c57600080fd5b5061043960048036036020811015610b8357600080fd5b50356001600160a01b0316611b3f565b61043960048036036060811015610ba957600080fd5b5080359060208101359060400135611bb5565b348015610bc857600080fd5b5061043960048036036060811015610bdf57600080fd5b508035906001600160a01b036020820135169060400135611c3a565b610439600480360360c0811015610c1157600080fd5b810190602081018135600160201b811115610c2b57600080fd5b820183602082011115610c3d57600080fd5b803590602001918460018302840111600160201b83111715610c5e57600080fd5b91908080601f016020809104026020016040519081016040528093929190818152602001838380828437600092019190915250929550506001600160a01b0383358116945060208401351692604081013592506060810135915060800135611c66565b348015610ccd57600080fd5b5061043960048036036020811015610ce457600080fd5b50356001600160a01b0316612593565b348015610d0057600080fd5b5061043960048036036020811015610d1757600080fd5b50356001600160a01b03166125b3565b348015610d3357600080fd5b5061043960048036036020811015610d4a57600080fd5b50356001600160a01b031661263b565b348015610d6657600080fd5b506103c660048036036020811015610d7d57600080fd5b5035612646565b348015610d9057600080fd5b5061043960048036036020811015610da757600080fd5b50356001600160a01b0316612653565b348015610dc357600080fd5b5061043960048036036040811015610dda57600080fd5b506001600160a01b0381351690602001356128a3565b348015610dfc57600080fd5b506103c6612948565b348015610e1157600080fd5b506103c661294e565b348015610e2657600080fd5b506103c660048036036020811015610e3d57600080fd5b5035612954565b348015610e5057600080fd5b5061043960048036036060811015610e6757600080fd5b5080359060208101359060400135612966565b348015610e8657600080fd5b506103c6612989565b348015610e9b57600080fd5b506103c660048036036020811015610eb257600080fd5b503563ffffffff1661298f565b348015610ecb57600080fd5b506103ed60048036036020811015610ee257600080fd5b50356129a1565b348015610ef557600080fd5b506103ed6129ae565b610439600480360360e0811015610f1457600080fd5b810190602081018135600160201b811115610f2e57600080fd5b820183602082011115610f4057600080fd5b803590602001918460018302840111600160201b83111715610f6157600080fd5b91908080601f016020809104026020016040519081016040528093929190818152602001838380828437600092019190915250929550506001600160a01b0383358116945060208401351692604081013592506060810135915060808101359060a0013515156129f4565b348015610fd857600080fd5b5061043960048036036040811015610fef57600080fd5b506001600160a01b038135169060200135612a2c565b603b818154811061101257fe5b600091825260209091200154905081565b604f546001600160a01b031681565b604f546001600160a01b0316331461104957600080fd5b6110538282612ae1565b5050565b7f426f756e63653a3a4d696e696e67446966666963756c7479000000000000000060005260506020527fdb6bb87505138f91f55f437bd3c7a7fe5adb4a85c0976812b55707362cb5d812545b90565b712137bab731b29d1d2137b73ab9aa37b5b2b760711b60005260506020527f84a30337c830f32cfdf76a3a6cf6cacb51942d84ca454bcd9c08a4ebb116afac5490565b604e6020526000908152604090205460ff1681565b6049546001600160a01b031681565b71426f756e63653a3a5478466565526174696f60701b60005260506020527ff078840ea03d61a7dd583f1f85d595ca9fe660c722c71f74eb8716ad97c0c2e25490565b603c818154811061101257fe5b604a6020526000908152604090205481565b75426f756e63653a3a546f74616c426f6e75734461797360501b60005260506020527f4de915546e4477c66cc1003e96b091084c05aa93015bfebcba9020f1289ff1ab5490565b604c60209081526000928352604080842090915290825290205481565b805160208183018101805160438252928201919093012091525481565b604f546001600160a01b03163314611242576040805162461bcd60e51b815260206004820152601060248201526f34b73b30b634b21033b7bb32b93737b960811b604482015290519081900360640190fd5b6001600160a01b0381166000908152604e602052604090205460ff1615611284576001600160a01b0381166000908152604e60205260409020805460ff191690555b50565b6038818154811061129457fe5b600091825260209182902001805460408051601f60026000196101006001871615020190941693909304928301859004850281018501909152818152935090918301828280156113255780601f106112fa57610100808354040283529160200191611325565b820191906000526020600020905b81548152906001019060200180831161130857829003601f168201915b505050505081565b603d818154811061101257fe5b60425463ffffffff1681565b6033546001600160a01b031681565b336000611360612b08565b9050600061136c611a8a565b9050801561148a5763ffffffff821660008181526035602090815260408083206001600160a01b03881680855290835281842084905593835260448252808320938352929052908120556113be6110a6565b6001600160a01b031663a9059cbb84836040518363ffffffff1660e01b815260040180836001600160a01b0316815260200182815260200192505050602060405180830381600087803b15801561141457600080fd5b505af1158015611428573d6000803e3d6000fd5b505050506040513d602081101561143e57600080fd5b505161148a576040805162461bcd60e51b81526020600482015260166024820152753a37b5b2b7103a3930b739b332b9103330b4b632b21760511b604482015290519081900360640190fd5b604080516001600160a01b03851681526020810183905281517f4e69fdc49495bcab2b4375781457ba16653a90eb4ffb6588351bdc39071433e2929181900390910190a1505050565b604460209081526000928352604080842090915290825290205481565b603981815481106114fd57fe5b6000918252602090912001546001600160a01b0316905081565b6001600160a01b03811682186000908152605060205260409020545b92915050565b603560209081526000928352604080842090915290825290205481565b60416020526000908152604090205481565b60345481565b61157d898989898989896129f4565b60405460001901821561159c576000818152604a602052604090208390555b81156115b4576000818152604b602052604090208290555b50505050505050505050565b603f818154811061101257fe5b7f426f756e63653a3a4d696e56616c75654f66426f74486f6c646572000000000060005260506020527f63005158d26fa628e09d3b0676e9cba01be393e84e846718bf5cb313e16a4c005490565b60009081526050602052604090205490565b336000818152604160205260409020546116785760405162461bcd60e51b8152600401808060200182810382526027815260200180613d4c6027913960400191505060405180910390fd5b6001600160a01b038116600090815260416020526040908190205490546000199091019081106116eb576040805162461bcd60e51b81526020600482015260196024820152783a3434b9903837b7b6103237b2b9903737ba1032bc34b9ba1760391b604482015290519081900360640190fd5b42603f82815481106116f957fe5b90600052602060002001541115611757576040805162461bcd60e51b815260206004820152601860248201527f7468697320706f6f6c206973206e6f7420636c6f7365642e0000000000000000604482015290519081900360640190fd5b603d818154811061176457fe5b9060005260206000200154603b828154811061177c57fe5b9060005260206000200154116117c35760405162461bcd60e51b8152600401808060200182810382526029815260200180613dde6029913960400191505060405180910390fd5b6000603d82815481106117d257fe5b9060005260206000200154603b83815481106117ea57fe5b60009182526020808320909101546001600160a01b03871683526041909152604082209190915503905080156119045760006039838154811061182957fe5b60009182526020808320909101546040805163a9059cbb60e01b81526001600160a01b038981166004830152602482018890529151919092169450849363a9059cbb93604480850194919392918390030190829087803b15801561188c57600080fd5b505af11580156118a0573d6000803e3d6000fd5b505050506040513d60208110156118b657600080fd5b5051611902576040805162461bcd60e51b81526020600482015260166024820152753a37b5b2b7103a3930b739b332b9103330b4b632b21760511b604482015290519081900360640190fd5b505b604080516001600160a01b03851681526020810183905281517fa2a0f38c54e7db1c9fafa64b7bf2eb5b1f92cf0d833884ae12d13660c2a51a57929181900390910190a1505050565b60476020526000908152604090205460ff1681565b604f546001600160a01b0316331461197957600080fd5b604f546040516000916001600160a01b0316907fc7c0c772add429241571afb3805861fb3cfa2af374534088b76cdb4325a87e9a908390a3604f80546001600160a01b0319169055565b72426f756e63653a3a426f6e757350657244617960681b60005260506020527fc65355958028867a987caa7759d04babf289269b977682dda5c4804f875b05cd5490565b1860009081526050602052604090205490565b60456020526000908152604090205481565b603a81815481106114fd57fe5b6000611a484262015180612b1a565b905090565b6000611a6d70109bdd5b98d94e8e95da1a5d195b1a5cdd607a1b83611517565b151592915050565b604d6020526000908152604090205460ff1681565b60003381611a96612b08565b60425490915063ffffffff16611aaa61116f565b018163ffffffff161115611ac3576000925050506110a3565b63ffffffff8116600090815260456020526040902054611ae8576000925050506110a3565b63ffffffff8116600090815260456020908152604080832054604483528184206001600160a01b0387168552909252822054611b379190611b3190611b2b6119c3565b90612b63565b90612b1a565b935050505090565b604f546001600160a01b03163314611b91576040805162461bcd60e51b815260206004820152601060248201526f34b73b30b634b21033b7bb32b93737b960811b604482015290519081900360640190fd5b6001600160a01b03166000908152604e60205260409020805460ff19166001179055565b6000838152604a602052604090205415611c2b576000838152604a60205260409020548114611c2b576040805162461bcd60e51b815260206004820152601860248201527f70617373776f7264206973206e6f7420636f72726563742e0000000000000000604482015290519081900360640190fd5b611c358383612bbc565b505050565b604f546001600160a01b03163314611c5157600080fd5b611c356001600160a01b038316841882612ae1565b3360008181526041602052604090205415611d28576001600160a01b038116600090815260416020526040902054603e80546000199092019182908110611ca957fe5b9060005260206000200154603c8281548110611cc157fe5b906000526020600020015411611cef576001600160a01b038216600090815260416020526040812055611d26565b60405162461bcd60e51b8152600401808060200182810382526023815260200180613ed76023913960400191505060405180910390fd5b505b60006043886040518082805190602001908083835b60208310611d5c5780518252601f199092019160209182019101611d3d565b6001836020036101000a0380198251168184511680821785525050505050509050019150509081526020016040518091039020541115611e9c57600060016043896040518082805190602001908083835b60208310611dcc5780518252601f199092019160209182019101611dad565b6001836020036101000a03801982511681845116808217855250505050505090500191505090815260200160405180910390205403905060006041600060378481548110611e1657fe5b60009182526020808320909101546001600160a01b03168352820192909252604001902054118015611e5e575042603f8281548110611e5157fe5b9060005260206000200154115b15611e9a5760405162461bcd60e51b8152600401808060200182810382526025815260200180613f8b6025913960400191505060405180910390fd5b505b846001600160a01b0316866001600160a01b03161415611eed5760405162461bcd60e51b8152600401808060200182810382526022815260200180613f696022913960400191505060405180910390fd5b6001600160a01b03851615611f3e576040805162461bcd60e51b81526020600482015260126024820152713a37b5b2b7189034b9903737ba1022aa241760711b604482015290519081900360640190fd5b83611f7a5760405162461bcd60e51b8152600401808060200182810382526022815260200180613e5f6022913960400191505060405180910390fd5b82611fb65760405162461bcd60e51b8152600401808060200182810382526022815260200180613d946022913960400191505060405180910390fd5b81612008576040805162461bcd60e51b815260206004820152601e60248201527f7468652076616c7565206f66206475726174696f6e206973207a65726f2e0000604482015290519081900360640190fd5b600f8751111561205f576040805162461bcd60e51b815260206004820152601e60248201527f746865206c656e677468206f66206e616d6520697320746f6f206c6f6e670000604482015290519081900360640190fd5b6001600160a01b0386166120bf578334146120ba576040805162461bcd60e51b815260206004820152601660248201527534b73b30b634b21030b6b7bab73a1037b31022aa241760511b604482015290519081900360640190fd5b612205565b604080516323b872dd60e01b81526001600160a01b03838116600483015230602483015260448201879052915188928316916323b872dd9160648083019260209291908290030181600087803b15801561211857600080fd5b505af115801561212c573d6000803e3d6000fd5b505050506040513d602081101561214257600080fd5b505161217f5760405162461bcd60e51b8152600401808060200182810382526034815260200180613e816034913960400191505060405180910390fd5b806001600160a01b031663095ea7b33060006040518363ffffffff1660e01b815260040180836001600160a01b0316815260200182815260200192505050602060405180830381600087803b1580156121d757600080fd5b505af11580156121eb573d6000803e3d6000fd5b505050506040513d602081101561220157600080fd5b5050505b600061221142846139ea565b6037805460018082019092557f42a7b7dd785cd69714a189dffb3fd7d7174edc9ece837694ce50f7078f7c31ae0180546001600160a01b0319166001600160a01b038616179055603880549182018155600052895191925061229c917f38395c5dceade9603479b177b68959049485df8aa97b39f3533039af5f4561999091019060208b0190613cb8565b506039805460018181019092557fdc16fef70f8d5ddbc01ee3d903d1e69c18a3c7be080eb86a81e0578814ee58d30180546001600160a01b03808b166001600160a01b031992831617909255603a80548085019091557fa2999d817b6757290b50e8ecf3fa939673403dd35c97de392fdb343b4015ce9e0180548a84169216919091179055603b80548084019091557fbbe3212124853f8b0084a66a2d057c2966e251e132af3691db153ab65f0d1a4d01879055603c80548084019091557fc6bb06cb7f92603de181bf256cd16846b93b752a170ff24824098b31aa008a7e01869055603d805480840190915560007fece66cfdbd22e3f37d348a3d8e19074452862cd65fd4b9a11f0336d1ac6d1dc3909101819055603e80548085019091557f8d800d6614d35eed73733ee453164a3b48076eb3138f466adeeb9dec7bb31f7001819055603f805493840190557fc03004e3ce0784bf68186394306849f9b7b1200073105cd9aeb554a1802b58fd90920183905560375460408181559185168352604160209081529282902081905590518a5191926043928c92918291908401908083835b602083106124615780518252601f199092019160209182019101612442565b6001836020036101000a0380198251168184511680821785525050505050509050019150509081526020016040518091039020819055507f290a4bfcb38878b2171f59214ee0433320ef61e49d0054c302931a1ae73ee877600160405403838a8a8a8a8a8860405180898152602001886001600160a01b0316815260200180602001876001600160a01b03168152602001866001600160a01b03168152602001858152602001848152602001838152602001828103825288818151815260200191508051906020019080838360005b83811015612548578181015183820152602001612530565b50505050905090810190601f1680156125755780820380516001836020036101000a031916815260200191505b50995050505050505050505060405180910390a15050505050505050565b604f546001600160a01b031633146125aa57600080fd5b61128481613a44565b604f546001600160a01b03163314806125d55750604f546001600160a01b0316155b612619576040805162461bcd60e51b815260206004820152601060248201526f34b73b30b634b21033b7bb32b93737b960811b604482015290519081900360640190fd5b604f80546001600160a01b0319166001600160a01b0392909216919091179055565b611284816001612a2c565b603e818154811061101257fe5b604f546001600160a01b03163314806126755750604f546001600160a01b0316155b6126b9576040805162461bcd60e51b815260206004820152601060248201526f34b73b30b634b21033b7bb32b93737b960811b604482015290519081900360640190fd5b604f80546001600160a01b0383166001600160a01b03199091161790556042805463ffffffff191661482d1790556608e1bc9bf040007ff078840ea03d61a7dd583f1f85d595ca9fe660c722c71f74eb8716ad97c0c2e2556729a2241af62c00007fdb6bb87505138f91f55f437bd3c7a7fe5adb4a85c0976812b55707362cb5d8128190557fc65355958028867a987caa7759d04babf289269b977682dda5c4804f875b05cd5567016345785d8a00007f63005158d26fa628e09d3b0676e9cba01be393e84e846718bf5cb313e16a4c0055610b2f7f4de915546e4477c66cc1003e96b091084c05aa93015bfebcba9020f1289ff1ab557f975563aaf6f6f5b1ac46e66712d675039c85d43cf7fcbd45f731d5ffd669b28d805460ff191660019081179091556050602052735beabaebb3146685dd74176f68a0721f91297d377f84a30337c830f32cfdf76a3a6cf6cacb51942d84ca454bcd9c08a4ebb116afac5574109bdd5b98d94e8e94dd185ad950dbdb9d1c9858dd605a1b6000527398945bc69a554f8b129b09ac8afdc2cc2431c48e7ff66f65ccf0035e457db2441f6cc21ebbeaa159c68b2f0ff991f4f8565e491387556112849070109bdd5b98d94e8e95da1a5d195b1a5cdd607a1b9073f74bf048138a2b8f825eccabed9e02e481a0f6c090611c51565b604f546001600160a01b031633146128ba57600080fd5b6128c26110a6565b6001600160a01b031663095ea7b383836040518363ffffffff1660e01b815260040180836001600160a01b0316815260200182815260200192505050602060405180830381600087803b15801561291857600080fd5b505af115801561292c573d6000803e3d6000fd5b505050506040513d602081101561294257600080fd5b50505050565b60485481565b60405481565b604b6020526000908152604090205481565b604f546001600160a01b0316331461297d57600080fd5b611c3583831882612ae1565b60465481565b60366020526000908152604090205481565b603781815481106114fd57fe5b74109bdd5b98d94e8e94dd185ad950dbdb9d1c9858dd605a1b60005260506020527ff66f65ccf0035e457db2441f6cc21ebbeaa159c68b2f0ff991f4f8565e4913875490565b612a02878787878787611c66565b60408054600019016000908152604760205220805460ff1916911515919091179055505050505050565b612a3533611a4d565b15611053576000612a44611a39565b63ffffffff80821660009081526044602090815260408083206001600160a01b0389168452909152902054919250612a7f919084906139ea16565b63ffffffff80831660008181526044602090815260408083206001600160a01b038a16845282528083209590955591815260459091529190912054612ac69184906139ea16565b63ffffffff9091166000908152604560205260409020555050565b60008281526050602052604090205481146110535760009182526050602052604090912055565b60006001612b14611a39565b03905090565b6000612b5c83836040518060400160405280601a81526020017f536166654d6174683a206469766973696f6e206279207a65726f000000000000815250613ab3565b9392505050565b600082612b7257506000611533565b82820282848281612b7f57fe5b0414612b5c5760405162461bcd60e51b8152600401808060200182810382526021815260200180613e3e6021913960400191505060405180910390fd5b60405433908310612c10576040805162461bcd60e51b81526020600482015260196024820152783a3434b9903837b7b6103237b2b9903737ba1032bc34b9ba1760391b604482015290519081900360640190fd5b81612c62576040805162461bcd60e51b815260206004820152601d60248201527f7468652076616c7565206f6620616d6f756e7431206973207a65726f2e000000604482015290519081900360640190fd5b42603f8481548110612c7057fe5b906000526020600020015411612cc4576040805162461bcd60e51b81526020600482015260146024820152733a3434b9903837b7b61034b99031b637b9b2b21760611b604482015290519081900360640190fd5b603e8381548110612cd157fe5b9060005260206000200154603c8481548110612ce957fe5b906000526020600020015411612d3d576040805162461bcd60e51b815260206004820152601460248201527339bbb0b81030b6b7bab73a1034b9903d32b9379760611b604482015290519081900360640190fd5b6000838152604a6020526040902054158015612d6c575060008381526047602052604090205460ff1615156001145b15612d7957612d79613b55565b6000838152604b602052604090205415612e56576000838152604b60209081526040808320546001600160a01b0385168452604c835281842087855290925290912054612dc690846139ea565b1115612e035760405162461bcd60e51b8152600401808060200182810382526036815260200180613efa6036913960400191505060405180910390fd5b6001600160a01b0381166000908152604c60209081526040808320868452909152902054612e3190836139ea565b6001600160a01b0382166000908152604c602090815260408083208784529091529020555b600080612e9a603e8681548110612e6957fe5b9060005260206000200154603c8781548110612e8157fe5b9060005260206000200154613c2190919063ffffffff16565b905083811015612eb557612eae8482613c21565b9150612eb8565b50825b6000612eff603c8781548110612eca57fe5b9060005260206000200154611b31603b8981548110612ee557fe5b906000526020600020015485612b6390919063ffffffff16565b90506000612f2b603d8881548110612f1357fe5b9060005260206000200154603b8981548110612e8157fe5b905081811015612f8757606481830311612f82576040805162461bcd60e51b815260206004820152601360248201527230b6b7bab73a181034b9903a37b7903134b39760691b604482015290519081900360640190fd5b612f8a565b50805b612fb481603d8981548110612f9b57fe5b90600052602060002001546139ea90919063ffffffff16565b603d8881548110612fc157fe5b9060005260206000200181905550612fe083603e8981548110612f9b57fe5b603e8881548110612fed57fe5b6000918252602082200191909155603a80548990811061300957fe5b6000918252602090912001546001600160a01b0316141561307657853414613071576040805162461bcd60e51b815260206004820152601660248201527534b73b30b634b21030b6b7bab73a1037b31022aa241760511b604482015290519081900360640190fd5b61330e565b6000603a888154811061308557fe5b6000918252602080832090910154604080516370a0823160e01b815230600482015290516001600160a01b03909216945084926370a0823192602480840193829003018186803b1580156130d857600080fd5b505afa1580156130ec573d6000803e3d6000fd5b505050506040513d602081101561310257600080fd5b5051604080516323b872dd60e01b81526001600160a01b038a81166004830152306024830152604482018c90529151929350908416916323b872dd916064808201926020929091908290030181600087803b15801561316057600080fd5b505af1158015613174573d6000803e3d6000fd5b505050506040513d602081101561318a57600080fd5b50516131c75760405162461bcd60e51b8152600401808060200182810382526028815260200180613db66028913960400191505060405180910390fd5b816001600160a01b031663095ea7b33060006040518363ffffffff1660e01b815260040180836001600160a01b0316815260200182815260200192505050602060405180830381600087803b15801561321f57600080fd5b505af1158015613233573d6000803e3d6000fd5b505050506040513d602081101561324957600080fd5b5050604080516370a0823160e01b815230600482015290516000916001600160a01b038516916370a0823191602480820192602092909190829003018186803b15801561329557600080fd5b505afa1580156132a9573d6000803e3d6000fd5b505050506040513d60208110156132bf57600080fd5b50519050886132ce8284613c21565b1461330a5760405162461bcd60e51b8152600401808060200182810382526039815260200180613f306039913960400191505060405180910390fd5b5050505b801561345e5760006001600160a01b03166039888154811061332c57fe5b6000918252602090912001546001600160a01b03161415613383576040516001600160a01b0386169082156108fc029083906000818181858888f1935050505015801561337d573d6000803e3d6000fd5b5061345e565b60006039888154811061339257fe5b60009182526020808320909101546040805163a9059cbb60e01b81526001600160a01b038b81166004830152602482018890529151919092169450849363a9059cbb93604480850194919392918390030190829087803b1580156133f557600080fd5b505af1158015613409573d6000803e3d6000fd5b505050506040513d602081101561341f57600080fd5b505161345c5760405162461bcd60e51b8152600401808060200182810382526021815260200180613d736021913960400191505060405180910390fd5b505b83156135ae5760006001600160a01b0316603a888154811061347c57fe5b6000918252602090912001546001600160a01b031614156134d3576040516001600160a01b0386169085156108fc029086906000818181858888f193505050501580156134cd573d6000803e3d6000fd5b506135ae565b6000603a88815481106134e257fe5b60009182526020808320909101546040805163a9059cbb60e01b81526001600160a01b038b81166004830152602482018b90529151919092169450849363a9059cbb93604480850194919392918390030190829087803b15801561354557600080fd5b505af1158015613559573d6000803e3d6000fd5b505050506040513d602081101561356f57600080fd5b50516135ac5760405162461bcd60e51b8152600401808060200182810382526037815260200180613e076037913960400191505060405180910390fd5b505b6000603788815481106135bd57fe5b6000918252602082200154603a80546001600160a01b039092169350908a9081106135e457fe5b6000918252602090912001546001600160a01b031614156136d657600061361f670de0b6b3a7640000611b3161361861110d565b8890612b63565b9050600061362d8683613c21565b9050801561366d576040516001600160a01b0384169082156108fc029083906000818181858888f1935050505015801561366b573d6000803e3d6000fd5b505b81156136cf5761367b6129ae565b6001600160a01b0316635ec2dc8d836040518263ffffffff1660e01b81526004016000604051808303818588803b1580156136b557600080fd5b505af11580156136c9573d6000803e3d6000fd5b50505050505b50506137b1565b6000603a89815481106136e557fe5b60009182526020808320909101546040805163a9059cbb60e01b81526001600160a01b038781166004830152602482018b90529151919092169450849363a9059cbb93604480850194919392918390030190829087803b15801561374857600080fd5b505af115801561375c573d6000803e3d6000fd5b505050506040513d602081101561377257600080fd5b50516137af5760405162461bcd60e51b8152600401808060200182810382526022815260200180613eb56022913960400191505060405180910390fd5b505b60006137bb611a39565b63ffffffff80821660009081526035602090815260408083206001600160a01b038d1684529091529020549192506137f6919087906139ea16565b63ffffffff80831660008181526035602090815260408083206001600160a01b038e1684528252808320959095559181526036909152919091205461383d9187906139ea16565b63ffffffff821660009081526036602052604090205561385b611057565b881061393457604e6000603a8b8154811061387257fe5b60009182526020808320909101546001600160a01b0316835282019290925260400190205460ff16156139345763ffffffff80821660009081526044602090815260408083206001600160a01b038c1684529091529020546138d6918a906139ea16565b63ffffffff80831660008181526044602090815260408083206001600160a01b038e1684528252808320959095559181526045909152919091205461391d918a906139ea16565b63ffffffff82166000908152604560205260409020555b7fadace0a68848f3c3a2f0b99ec5f0c419ea01492f3c2fbacabc7bec17bd4e072889838960398d8154811061396557fe5b600091825260209091200154603a80546001600160a01b03909216918f90811061398b57fe5b60009182526020918290200154604080519687526001600160a01b03958616928701929092529284168582015290831660608501529116608083015260a0820186905260c08201889052519081900360e00190a1505050505050505050565b600082820183811015612b5c576040805162461bcd60e51b815260206004820152601b60248201527f536166654d6174683a206164646974696f6e206f766572666c6f770000000000604482015290519081900360640190fd5b6001600160a01b038116613a5757600080fd5b604f546040516001600160a01b038084169216907fc7c0c772add429241571afb3805861fb3cfa2af374534088b76cdb4325a87e9a90600090a3604f80546001600160a01b0319166001600160a01b0392909216919091179055565b60008183613b3f5760405162461bcd60e51b81526004018080602001828103825283818151815260200191508051906020019080838360005b83811015613b04578181015183820152602001613aec565b50505050905090810190601f168015613b315780820380516001836020036101000a031916815260200191505b509250505060405180910390fd5b506000838581613b4b57fe5b0495945050505050565b613b5d6115cd565b613b656110a6565b6001600160a01b03166370a08231336040518263ffffffff1660e01b815260040180826001600160a01b0316815260200191505060206040518083038186803b158015613bb157600080fd5b505afa158015613bc5573d6000803e3d6000fd5b505050506040513d6020811015613bdb57600080fd5b50511015613c1f576040805162461bcd60e51b815260206004820152600c60248201526b2127aa1034b9903d32b9379760a11b604482015290519081900360640190fd5b565b6000612b5c83836040518060400160405280601e81526020017f536166654d6174683a207375627472616374696f6e206f766572666c6f77000081525060008184841115613cb05760405162461bcd60e51b8152602060048201818152835160248401528351909283926044909101919085019080838360008315613b04578181015183820152602001613aec565b505050900390565b828054600181600116156101000203166002900490600052602060002090601f016020900481019282601f10613cf957805160ff1916838001178555613d26565b82800160010185558215613d26579182015b82811115613d26578251825591602001919060010190613d0b565b50613d32929150613d36565b5090565b5b80821115613d325760008155600101613d3756fe7468697320706f6f6c206973206e6f74206f776e6564206279207468697320616464726573732e7472616e7366657220746f6b656e3020746f2073656e646572206661696c65642e7468652076616c7565206f6620616d6f756e74546f74616c31206973207a65726f2e7472616e7366657220746f6b656e3120746f207468697320636f6e7472616374206661696c65642e74686520746f74616c20616d6f756e74206f66207468697320706f6f6c20697320737761707065642e7472616e736665722065786365737320616d6f756e74206f6620746f6b656e31206261636b20746f2073656e646572206661696c65642e536166654d6174683a206d756c7469706c69636174696f6e206f766572666c6f777468652076616c7565206f6620616d6f756e74546f74616c30206973207a65726f2e7472616e7366657220746f6b656e2066726f6d2063726561746f7220746f207468697320636f6e7472616374206661696c65642e7472616e7366657220746f6b656e3120746f2063726561746f72206661696c65642e6120706f6f6c206861732063726561746564206279207468697320616464726573732e7377617070656420616d6f756e74206f6620746f6b656e31206973206578636565646564206d6178696d756d20616c6c6f77616e6365746865207472616e7366657272656420616d6f756e74206f66205f746f6b656e31206973206e6f7420657175616c20746f20616d6f756e7431746f6b656e3020616e6420746f6b656e312069732073616d6520616464726573732e61206c69766520706f6f6c2068617320637265617465642062792074686973206e616d652ea2646970667358221220be813f384c9ebd782775e9b4befcb350a376608b4c0f037a2e38e8ec769e024264736f6c634300060c0033",
  "compiler": {
    "name": "solc",
    "version": "0.6.12+commit.27d51765.Emscripten.clang",
    "optimizer": {
      "enabled": true,
      "runs": 200
    },
    "evmVersion": "petersburg"
  }
}