{
  "_format": "hh-sol-artifact-1",
  "contractName": "BounceOTC",
  "sourceName": "contracts/BounceOTC.sol",
  "abi": [
    {
      "anonymous": false,
      "inputs": [
        {
          "indexed": true,
          "internalType": "uint256",
          "name": "index",
          "type": "uint256"
        },
        {
          "indexed": true,
          "internalType": "address",
          "name": "sender",
          "type": "address"
        },
        {
          "indexed": false,
          "internalType": "uint256",
          "name": "amount0",
          "type": "uint256"
        },
        {
          "indexed": false,
          "internalType": "uint256",
          "name": "txFee",
          "type": "uint256"
        }
      ],
      "name": "Claimed",
      "type": "event"
    },
    {
      "anonymous": false,
      "inputs": [
        {
          "indexed": true,
          "internalType": "uint256",
          "name": "index",
          "type": "uint256"
        },
        {
          "indexed": true,
          "internalType": "address",
          "name": "sender",
          "type": "address"
        },
        {
          "components": [
            {
              "internalType": "string",
              "name": "name",
              "type": "string"
            },
            {
              "internalType": "address payable",
              "name": "creator",
              "type": "address"
            },
            {
              "internalType": "address",
              "name": "token0",
              "type": "address"
            },
            {
              "internalType": "address",
              "name": "token1",
              "type": "address"
            },
            {
              "internalType": "uint256",
              "name": "amountTotal0",
              "type": "uint256"
            },
            {
              "internalType": "uint256",
              "name": "amountTotal1",
              "type": "uint256"
            },
            {
              "internalType": "uint256",
              "name": "openAt",
              "type": "uint256"
            },
            {
              "internalType": "uint256",
              "name": "poolType",
              "type": "uint256"
            },
            {
              "internalType": "bool",
              "name": "enableWhiteList",
              "type": "bool"
            }
          ],
          "indexed": false,
          "internalType": "struct BounceOTC.Pool",
          "name": "pool",
          "type": "tuple"
        }
      ],
      "name": "Created",
      "type": "event"
    },
    {
      "anonymous": false,
      "inputs": [
        {
          "indexed": true,
          "internalType": "address",
          "name": "previousOwner",
          "type": "address"
        },
        {
          "indexed": true,
          "internalType": "address",
          "name": "newOwner",
          "type": "address"
        }
      ],
      "name": "OwnershipTransferred",
      "type": "event"
    },
    {
      "anonymous": false,
      "inputs": [
        {
          "indexed": true,
          "internalType": "uint256",
          "name": "index",
          "type": "uint256"
        },
        {
          "indexed": true,
          "internalType": "address",
          "name": "sender",
          "type": "address"
        },
        {
          "indexed": false,
          "internalType": "uint256",
          "name": "amount0",
          "type": "uint256"
        },
        {
          "indexed": false,
          "internalType": "uint256",
          "name": "amount1",
          "type": "uint256"
        },
        {
          "indexed": false,
          "internalType": "uint256",
          "name": "txFee",
          "type": "uint256"
        }
      ],
      "name": "Swapped",
      "type": "event"
    },
    {
      "anonymous": false,
      "inputs": [
        {
          "indexed": true,
          "internalType": "uint256",
          "name": "index",
          "type": "uint256"
        },
        {
          "indexed": true,
          "internalType": "address",
          "name": "sender",
          "type": "address"
        },
        {
          "indexed": false,
          "internalType": "uint256",
          "name": "amount0",
          "type": "uint256"
        }
      ],
      "name": "UserClaimed",
      "type": "event"
    },
    {
      "inputs": [
        {
          "internalType": "uint256",
          "name": "index",
          "type": "uint256"
        },
        {
          "internalType": "address[]",
          "name": "whitelist_",
          "type": "address[]"
        }
      ],
      "name": "addWhitelist",
      "outputs": [],
      "stateMutability": "nonpayable",
      "type": "function"
    },
    {
      "inputs": [
        {
          "internalType": "uint256",
          "name": "",
          "type": "uint256"
        }
      ],
      "name": "amountSwap0P",
      "outputs": [
        {
          "internalType": "uint256",
          "name": "",
          "type": "uint256"
        }
      ],
      "stateMutability": "view",
      "type": "function"
    },
    {
      "inputs": [
        {
          "internalType": "uint256",
          "name": "",
          "type": "uint256"
        }
      ],
      "name": "amountSwap1P",
      "outputs": [
        {
          "internalType": "uint256",
          "name": "",
          "type": "uint256"
        }
      ],
      "stateMutability": "view",
      "type": "function"
    },
    {
      "inputs": [
        {
          "components": [
            {
              "internalType": "string",
              "name": "name",
              "type": "string"
            },
            {
              "internalType": "address",
              "name": "token0",
              "type": "address"
            },
            {
              "internalType": "address",
              "name": "token1",
              "type": "address"
            },
            {
              "internalType": "uint256",
              "name": "amountTotal0",
              "type": "uint256"
            },
            {
              "internalType": "uint256",
              "name": "amountTotal1",
              "type": "uint256"
            },
            {
              "internalType": "uint256",
              "name": "openAt",
              "type": "uint256"
            },
            {
              "internalType": "uint256",
              "name": "poolType",
              "type": "uint256"
            },
            {
              "internalType": "bool",
              "name": "onlyBot",
              "type": "bool"
            },
            {
              "internalType": "bool",
              "name": "enableWhiteList",
              "type": "bool"
            }
          ],
          "internalType": "struct BounceOTC.CreateReq",
          "name": "poolReq",
          "type": "tuple"
        },
        {
          "internalType": "address[]",
          "name": "whitelist_",
          "type": "address[]"
        }
      ],
      "name": "create",
      "outputs": [],
      "stateMutability": "payable",
      "type": "function"
    },
    {
      "inputs": [
        {
          "internalType": "address",
          "name": "",
          "type": "address"
        },
        {
          "internalType": "uint256",
          "name": "",
          "type": "uint256"
        }
      ],
      "name": "creatorClaimed",
      "outputs": [
        {
          "internalType": "bool",
          "name": "",
          "type": "bool"
        }
      ],
      "stateMutability": "view",
      "type": "function"
    },
    {
      "inputs": [
        {
          "internalType": "uint256",
          "name": "index",
          "type": "uint256"
        }
      ],
      "name": "deList",
      "outputs": [],
      "stateMutability": "nonpayable",
      "type": "function"
    },
    {
      "inputs": [
        {
          "internalType": "uint256",
          "name": "",
          "type": "uint256"
        }
      ],
      "name": "filledAtP",
      "outputs": [
        {
          "internalType": "uint256",
          "name": "",
          "type": "uint256"
        }
      ],
      "stateMutability": "view",
      "type": "function"
    },
    {
      "inputs": [],
      "name": "getBotToken",
      "outputs": [
        {
          "internalType": "address",
          "name": "",
          "type": "address"
        }
      ],
      "stateMutability": "view",
      "type": "function"
    },
    {
      "inputs": [
        {
          "internalType": "bytes32",
          "name": "key",
          "type": "bytes32"
        },
        {
          "internalType": "address",
          "name": "addr",
          "type": "address"
        }
      ],
      "name": "getConfig",
      "outputs": [
        {
          "internalType": "uint256",
          "name": "",
          "type": "uint256"
        }
      ],
      "stateMutability": "view",
      "type": "function"
    },
    {
      "inputs": [
        {
          "internalType": "bytes32",
          "name": "key",
          "type": "bytes32"
        }
      ],
      "name": "getConfig",
      "outputs": [
        {
          "internalType": "uint256",
          "name": "",
          "type": "uint256"
        }
      ],
      "stateMutability": "view",
      "type": "function"
    },
    {
      "inputs": [
        {
          "internalType": "bytes32",
          "name": "key",
          "type": "bytes32"
        },
        {
          "internalType": "uint256",
          "name": "index",
          "type": "uint256"
        }
      ],
      "name": "getConfig",
      "outputs": [
        {
          "internalType": "uint256",
          "name": "",
          "type": "uint256"
        }
      ],
      "stateMutability": "view",
      "type": "function"
    },
    {
      "inputs": [],
      "name": "getMinValueOfBotHolder",
      "outputs": [
        {
          "internalType": "uint256",
          "name": "",
          "type": "uint256"
        }
      ],
      "stateMutability": "view",
      "type": "function"
    },
    {
      "inputs": [],
      "name": "getPoolCount",
      "outputs": [
        {
          "internalType": "uint256",
          "name": "",
          "type": "uint256"
        }
      ],
      "stateMutability": "view",
      "type": "function"
    },
    {
      "inputs": [],
      "name": "getStakeContract",
      "outputs": [
        {
          "internalType": "address",
          "name": "",
          "type": "address"
        }
      ],
      "stateMutability": "view",
      "type": "function"
    },
    {
      "inputs": [],
      "name": "getTxFeeRatio",
      "outputs": [
        {
          "internalType": "uint256",
          "name": "",
          "type": "uint256"
        }
      ],
      "stateMutability": "view",
      "type": "function"
    },
    {
      "inputs": [],
      "name": "initialize",
      "outputs": [],
      "stateMutability": "nonpayable",
      "type": "function"
    },
    {
      "inputs": [],
      "name": "initialize_rinkeby",
      "outputs": [],
      "stateMutability": "nonpayable",
      "type": "function"
    },
    {
      "inputs": [
        {
          "internalType": "address",
          "name": "",
          "type": "address"
        },
        {
          "internalType": "uint256",
          "name": "",
          "type": "uint256"
        }
      ],
      "name": "myAmountSwapped0",
      "outputs": [
        {
          "internalType": "uint256",
          "name": "",
          "type": "uint256"
        }
      ],
      "stateMutability": "view",
      "type": "function"
    },
    {
      "inputs": [
        {
          "internalType": "address",
          "name": "",
          "type": "address"
        },
        {
          "internalType": "uint256",
          "name": "",
          "type": "uint256"
        }
      ],
      "name": "myAmountSwapped1",
      "outputs": [
        {
          "internalType": "uint256",
          "name": "",
          "type": "uint256"
        }
      ],
      "stateMutability": "view",
      "type": "function"
    },
    {
      "inputs": [
        {
          "internalType": "address",
          "name": "",
          "type": "address"
        },
        {
          "internalType": "uint256",
          "name": "",
          "type": "uint256"
        }
      ],
      "name": "myClaimed",
      "outputs": [
        {
          "internalType": "bool",
          "name": "",
          "type": "bool"
        }
      ],
      "stateMutability": "view",
      "type": "function"
    },
    {
      "inputs": [
        {
          "internalType": "uint256",
          "name": "",
          "type": "uint256"
        }
      ],
      "name": "onlyBotHolderP",
      "outputs": [
        {
          "internalType": "bool",
          "name": "",
          "type": "bool"
        }
      ],
      "stateMutability": "view",
      "type": "function"
    },
    {
      "inputs": [],
      "name": "owner",
      "outputs": [
        {
          "internalType": "address",
          "name": "",
          "type": "address"
        }
      ],
      "stateMutability": "view",
      "type": "function"
    },
    {
      "inputs": [
        {
          "internalType": "uint256",
          "name": "",
          "type": "uint256"
        }
      ],
      "name": "pools",
      "outputs": [
        {
          "internalType": "string",
          "name": "name",
          "type": "string"
        },
        {
          "internalType": "address payable",
          "name": "creator",
          "type": "address"
        },
        {
          "internalType": "address",
          "name": "token0",
          "type": "address"
        },
        {
          "internalType": "address",
          "name": "token1",
          "type": "address"
        },
        {
          "internalType": "uint256",
          "name": "amountTotal0",
          "type": "uint256"
        },
        {
          "internalType": "uint256",
          "name": "amountTotal1",
          "type": "uint256"
        },
        {
          "internalType": "uint256",
          "name": "openAt",
          "type": "uint256"
        },
        {
          "internalType": "uint256",
          "name": "poolType",
          "type": "uint256"
        },
        {
          "internalType": "bool",
          "name": "enableWhiteList",
          "type": "bool"
        }
      ],
      "stateMutability": "view",
      "type": "function"
    },
    {
      "inputs": [
        {
          "internalType": "uint256",
          "name": "index",
          "type": "uint256"
        },
        {
          "internalType": "address[]",
          "name": "whitelist_",
          "type": "address[]"
        }
      ],
      "name": "removeWhitelist",
      "outputs": [],
      "stateMutability": "nonpayable",
      "type": "function"
    },
    {
      "inputs": [],
      "name": "renounceOwnership",
      "outputs": [],
      "stateMutability": "nonpayable",
      "type": "function"
    },
    {
      "inputs": [
        {
          "internalType": "bytes32",
          "name": "key",
          "type": "bytes32"
        },
        {
          "internalType": "uint256",
          "name": "value",
          "type": "uint256"
        }
      ],
      "name": "setConfig",
      "outputs": [],
      "stateMutability": "nonpayable",
      "type": "function"
    },
    {
      "inputs": [
        {
          "internalType": "bytes32",
          "name": "key",
          "type": "bytes32"
        },
        {
          "internalType": "address",
          "name": "addr",
          "type": "address"
        },
        {
          "internalType": "uint256",
          "name": "value",
          "type": "uint256"
        }
      ],
      "name": "setConfig",
      "outputs": [],
      "stateMutability": "nonpayable",
      "type": "function"
    },
    {
      "inputs": [
        {
          "internalType": "bytes32",
          "name": "key",
          "type": "bytes32"
        },
        {
          "internalType": "uint256",
          "name": "index",
          "type": "uint256"
        },
        {
          "internalType": "uint256",
          "name": "value",
          "type": "uint256"
        }
      ],
      "name": "setConfig",
      "outputs": [],
      "stateMutability": "nonpayable",
      "type": "function"
    },
    {
      "inputs": [
        {
          "internalType": "uint256",
          "name": "index",
          "type": "uint256"
        },
        {
          "internalType": "uint256",
          "name": "amount1",
          "type": "uint256"
        }
      ],
      "name": "swap",
      "outputs": [],
      "stateMutability": "payable",
      "type": "function"
    },
    {
      "inputs": [
        {
          "internalType": "address",
          "name": "newOwner",
          "type": "address"
        }
      ],
      "name": "transferOwnership",
      "outputs": [],
      "stateMutability": "nonpayable",
      "type": "function"
    },
    {
      "inputs": [
        {
          "internalType": "uint256",
          "name": "",
          "type": "uint256"
        }
      ],
      "name": "txFeeP",
      "outputs": [
        {
          "internalType": "uint256",
          "name": "",
          "type": "uint256"
        }
      ],
      "stateMutability": "view",
      "type": "function"
    },
    {
      "inputs": [
        {
          "internalType": "uint256",
          "name": "",
          "type": "uint256"
        },
        {
          "internalType": "address",
          "name": "",
          "type": "address"
        }
      ],
      "name": "whitelistP",
      "outputs": [
        {
          "internalType": "bool",
          "name": "",
          "type": "bool"
        }
      ],
      "stateMutability": "view",
      "type": "function"
    }
  ],
  "bytecode": "0x608060405234801561001057600080fd5b506130dd806100206000396000f3fe6080604052600436106101e35760003560e01c80638cfbe9d511610102578063c6472b1211610095578063ddf2be3f11610064578063ddf2be3f1461053d578063dfd29d9e1461055d578063e471039014610572578063f2fde38b14610592576101e3565b8063c6472b12146104d5578063c7011b7b146104f5578063cc786a801461050a578063d96073cf1461052a576101e3565b80638eec5d70116100d15780638eec5d701461044b578063a5ed536f14610460578063ac4afa3814610480578063b21544f3146104b5576101e3565b80638cfbe9d5146103bc5780638d0929af146103dc5780638da5cb5b146104095780638ec872e31461042b576101e3565b8063548644151161017a5780636dd5b69d116101495780636dd5b69d14610352578063715018a6146103725780638129fc1c146103875780638aa1e44e1461039c576101e3565b806354864415146102dd578063636b0475146102fd57806363cb6c421461031d5780636c22109814610332576101e3565b80631bb2dd6c116101b65780631bb2dd6c14610268578063211f41911461027d57806343be2d031461029d57806352665f47146102bd576101e3565b806307642065146101e8578063110808a6146101fd57806315fe96dc146102335780631a1db14214610253575b600080fd5b6101fb6101f6366004612762565b6105b2565b005b34801561020957600080fd5b5061021d61021836600461268f565b610a59565b60405161022a9190613019565b60405180910390f35b34801561023f57600080fd5b506101fb61024e366004612716565b610a6b565b34801561025f57600080fd5b506101fb610aae565b34801561027457600080fd5b5061021d610b3f565b34801561028957600080fd5b5061021d610298366004612649565b610b7a565b3480156102a957600080fd5b506101fb6102b836600461268f565b610b97565b3480156102c957600080fd5b5061021d6102d83660046126a7565b610f19565b3480156102e957600080fd5b5061021d6102f836600461268f565b610f3b565b34801561030957600080fd5b5061021d61031836600461268f565b610f4d565b34801561032957600080fd5b5061021d610f5f565b34801561033e57600080fd5b506101fb61034d3660046128aa565b610fa3565b34801561035e57600080fd5b5061021d61036d36600461268f565b611073565b34801561037e57600080fd5b506101fb611085565b34801561039357600080fd5b506101fb611104565b3480156103a857600080fd5b506101fb6103b73660046128aa565b611274565b3480156103c857600080fd5b5061021d6103d736600461268f565b6112e9565b3480156103e857600080fd5b506103fc6103f736600461287e565b6112fb565b60405161022a9190612991565b34801561041557600080fd5b5061041e61131b565b60405161022a9190612940565b34801561043757600080fd5b5061021d610446366004612716565b61132a565b34801561045757600080fd5b5061021d61133d565b34801561046c57600080fd5b5061021d61047b366004612649565b611343565b34801561048c57600080fd5b506104a061049b36600461268f565b611360565b60405161022a999897969594939291906129af565b3480156104c157600080fd5b506101fb6104d03660046126e1565b611457565b3480156104e157600080fd5b506103fc6104f036600461268f565b6114a1565b34801561050157600080fd5b5061041e6114b6565b34801561051657600080fd5b506103fc610525366004612649565b6114ef565b6101fb610538366004612716565b61150f565b34801561054957600080fd5b506101fb610558366004612737565b611c55565b34801561056957600080fd5b5061041e611c96565b34801561057e57600080fd5b506103fc61058d366004612649565b611cd4565b34801561059e57600080fd5b506101fb6105ad36600461262e565b611cf4565b60985460ff166105dd5760405162461bcd60e51b81526004016105d490612ee1565b60405180910390fd5b6098805460ff1916905560ca543233146106095760405162461bcd60e51b81526004016105d490612d29565b606083015161062a5760405162461bcd60e51b81526004016105d490612b7a565b608083015161064b5760405162461bcd60e51b81526004016105d490612b4c565b428360a00151101561066f5760405162461bcd60e51b81526004016105d490612bc9565b60c08301511580610684575060018360c00151145b6106a05760405162461bcd60e51b81526004016105d490612ab6565b825151600f10156106c35760405162461bcd60e51b81526004016105d490612cbd565b8260e00151156106f05760e0830151600082815260ce60205260409020805460ff19169115159190911790555b60208301516001600160a01b031661072a57348360600151146107255760405162461bcd60e51b81526004016105d490612b7a565b61087f565b60208301516040516370a0823160e01b81526000906001600160a01b038316906370a082319061075e903090600401612940565b60206040518083038186803b15801561077657600080fd5b505afa15801561078a573d6000803e3d6000fd5b505050506040513d601f19601f820116820180604052508101906107ae9190612866565b90506107d433308760600151856001600160a01b0316611dab909392919063ffffffff16565b846060015161085f82846001600160a01b03166370a08231306040518263ffffffff1660e01b81526004016108099190612940565b60206040518083038186803b15801561082157600080fd5b505afa158015610835573d6000803e3d6000fd5b505050506040513d601f19601f820116820180604052508101906108599190612866565b90611e09565b1461087c5760405162461bcd60e51b81526004016105d490612e60565b50505b826101000151156108b55760008251116108ab5760405162461bcd60e51b81526004016105d490612c16565b6108b58183611e52565b6108bd61241f565b8351815233602080830191909152808501516001600160a01b039081166040808501919091528601511660608084019190915285015160808084019190915285015160a08084019190915285015160c08084019190915285015160e08301526101008086015115159083015260ca805460018101825560009190915282518051849360099093027f42d72674974f694b5f5159593243114d38a5c39c89d6b62fee061ff523240ee10192610975928492910190612488565b5060208201516001820180546001600160a01b03199081166001600160a01b03938416179091556040808501516002850180548416918516919091179055606085015160038501805490931693169290921790556080830151600483015560a0830151600583015560c0830151600683015560e08301516007830155610100909201516008909101805460ff191691151591909117905551339083907f88cddfb799a5d6bcb02f1bf05e53698a419d3a9486cb83e115825435d64b765390610a3e908590612f77565b60405180910390a350506098805460ff191660011790555050565b60d46020526000908152604090205481565b610a73611eb8565b6065546001600160a01b03908116911614610aa05760405162461bcd60e51b81526004016105d490612cf4565b610aaa8282611ebc565b5050565b610ab6611104565b6097602052735e26fa0fe067d28aae8aff2fb85ac2e693bd9efa7ff8b521af4c41c6b3e43bbe26aab946504bdf758af1f0e92e5d8b88bb0e6286b4556c14dd185ad950dbdb9d1c9858dd609a1b60005273a77a9fcba2ae5599e0054369d1655d186020ece17f64b4bece0a6884013dd61733d0cecd1e6ead3e169c5dafae05953f524f2d93eb55565b695478466565526174696f60b01b60005260976020527fc7b252fd6e9303929060a312da400a79593f0b4303aa45dbfd24e4c5d4fdb2c75490565b60d160209081526000928352604080842090915290825290205481565b60985460ff16610bb95760405162461bcd60e51b81526004016105d490612ee1565b6098805460ff1916905560ca5481908110610be65760405162461bcd60e51b81526004016105d490612ae0565b610bee61241f565b60ca8381548110610bfb57fe5b600091825260209182902060408051600993909302909101805460026001821615610100026000190190911604601f81018590049094028301610140908101909252610120830184815292939092849290918491840182828015610ca05780601f10610c7557610100808354040283529160200191610ca0565b820191906000526020600020905b815481529060010190602001808311610c8357829003601f168201915b505050918352505060018201546001600160a01b0390811660208084019190915260028401548216604084015260038401548216606084015260048401546080840152600584015460a0840152600684015460c0840152600784015460e084015260089093015460ff1615156101009092019190915290820151919250163314610d3c5760405162461bcd60e51b81526004016105d490612bf1565b6020808201516001600160a01b0316600090815260cf82526040808220868352909252205460ff1615610d815760405162461bcd60e51b81526004016105d490612ba8565b6020808201516001600160a01b0316600090815260cf825260408082208683528352808220805460ff1916600117905560d4909252205415610e3e5760608101516001600160a01b0316610e3e57610dd7611c96565b6001600160a01b0316635ec2dc8d60d46000868152602001908152602001600020546040518263ffffffff1660e01b81526004016000604051808303818588803b158015610e2457600080fd5b505af1158015610e38573d6000803e3d6000fd5b50505050505b600083815260cc60205260409020546080820151038015610ed45760408201516001600160a01b0316610eae5781602001516001600160a01b03166108fc829081150290604051600060405180830381858888f19350505050158015610ea8573d6000803e3d6000fd5b50610ed4565b610ed482602001518284604001516001600160a01b0316611ee39092919063ffffffff16565b600084815260d4602052604090819020549051339186917fd9cb1e2714d65a111c0f20f060176ad657496bd47a3de04ec7c3d4ca232112ac91610a3e91869190613022565b6001600160a01b03811682186000908152609760205260409020545b92915050565b60cb6020526000908152604090205481565b60cd6020526000908152604090205481565b7226b4b72b30b63ab2a7b32137ba2437b63232b960691b60005260976020527f6f70148f50089d4ed11c0858ac83480e86d3072d5886171be93c6c4ba59fe6905490565b33610fac61131b565b6001600160a01b03161480610ff25750336001600160a01b031660ca8381548110610fd357fe5b60009182526020909120600160099092020101546001600160a01b0316145b61100e5760405162461bcd60e51b81526004016105d490612a8f565b60005b815181101561106e5760d36000848152602001908152602001600020600083838151811061103b57fe5b6020908102919091018101516001600160a01b03168252810191909152604001600020805460ff19169055600101611011565b505050565b60009081526097602052604090205490565b61108d611eb8565b6065546001600160a01b039081169116146110ba5760405162461bcd60e51b81526004016105d490612cf4565b6065546040516000916001600160a01b0316907f8be0079c531659141344cd1fd0a4f28419497f9722a3daafe3b4186f6b6457e0908390a3606580546001600160a01b0319169055565b600054610100900460ff168061111d575061111d611f02565b8061112b575060005460ff16155b6111475760405162461bcd60e51b81526004016105d490612d8d565b600054610100900460ff16158015611172576000805460ff1961ff0019909116610100171660011790555b61117a611f08565b611182611f9a565b609760205266354a6ba7a180007fc7b252fd6e9303929060a312da400a79593f0b4303aa45dbfd24e4c5d4fdb2c755680340aad21b3b7000007f6f70148f50089d4ed11c0858ac83480e86d3072d5886171be93c6c4ba59fe6905573a9b1eb5908cfc3cdf91f9b8b3a741085980090967ff8b521af4c41c6b3e43bbe26aab946504bdf758af1f0e92e5d8b88bb0e6286b4556c14dd185ad950dbdb9d1c9858dd609a1b6000527398945bc69a554f8b129b09ac8afdc2cc2431c48e7f64b4bece0a6884013dd61733d0cecd1e6ead3e169c5dafae05953f524f2d93eb558015611271576000805461ff00191690555b50565b3361127d61131b565b6001600160a01b031614806112c35750336001600160a01b031660ca83815481106112a457fe5b60009182526020909120600160099092020101546001600160a01b0316145b6112df5760405162461bcd60e51b81526004016105d490612a8f565b610aaa8282611e52565b60cc6020526000908152604090205481565b60d360209081526000928352604080842090915290825290205460ff1681565b6065546001600160a01b031690565b1860009081526097602052604090205490565b60ca5490565b60d060209081526000928352604080842090915290825290205481565b60ca818154811061136d57fe5b60009182526020918290206009919091020180546040805160026001841615610100026000190190931692909204601f8101859004850283018501909152808252919350918391908301828280156114065780601f106113db57610100808354040283529160200191611406565b820191906000526020600020905b8154815290600101906020018083116113e957829003601f168201915b50505050600183015460028401546003850154600486015460058701546006880154600789015460089099015497986001600160a01b03968716989587169750959093169491939092919060ff1689565b61145f611eb8565b6065546001600160a01b0390811691161461148c5760405162461bcd60e51b81526004016105d490612cf4565b61106e6001600160a01b038316841882611ebc565b60ce6020526000908152604090205460ff1681565b672137ba2a37b5b2b760c11b60005260976020527ff8b521af4c41c6b3e43bbe26aab946504bdf758af1f0e92e5d8b88bb0e6286b45490565b60cf60209081526000928352604080842090915290825290205460ff1681565b60985460ff166115315760405162461bcd60e51b81526004016105d490612ee1565b6098805460ff1916905560ca548290811061155e5760405162461bcd60e51b81526004016105d490612ae0565b600083815260ce6020526040902054839060ff16156116205761157f610f5f565b6115876114b6565b6001600160a01b03166370a08231336040518263ffffffff1660e01b81526004016115b29190612940565b60206040518083038186803b1580156115ca57600080fd5b505afa1580156115de573d6000803e3d6000fd5b505050506040513d601f19601f820116820180604052508101906116029190612866565b10156116205760405162461bcd60e51b81526004016105d490612ddb565b333281146116405760405162461bcd60e51b81526004016105d490612d29565b61164861241f565b60ca868154811061165557fe5b600091825260209182902060408051600993909302909101805460026001821615610100026000190190911604601f810185900490940283016101409081019092526101208301848152929390928492909184918401828280156116fa5780601f106116cf576101008083540402835291602001916116fa565b820191906000526020600020905b8154815290600101906020018083116116dd57829003601f168201915b505050918352505060018201546001600160a01b039081166020808401919091526002840154821660408085019190915260038501548316606085015260048501546080850152600585015460a0850152600685015460c0850152600785015460e085015260089094015460ff90811615156101009094019390935284810151909116600090815260cf82528381208b8252909152919091205491925016156117b55760405162461bcd60e51b81526004016105d490612f4f565b8061010001511561180257600086815260d3602090815260408083206001600160a01b038616845290915290205460ff166118025760405162461bcd60e51b81526004016105d490612c45565b428160c0015111156118265760405162461bcd60e51b81526004016105d490612e0a565b600086815260cd602052604090205460a0820151116118575760405162461bcd60e51b81526004016105d490612d60565b600086815260cd602052604081205460a083015182916118779190611e09565b9050868110156118925761188b8782611e09565b9150611895565b50855b60006118bc8460a001516118b686608001518561201090919063ffffffff16565b9061204a565b60008a815260cc6020526040812054608087015192935090916118de91611e09565b9050818111156118eb5750805b60008a815260cc6020526040902054611904908261208c565b60008b815260cc602090815260408083209390935560cd90522054611929908461208c565b60008b815260cd60209081526040808320939093556001600160a01b038916825260d081528282208d835290522054611962908261208c565b6001600160a01b038716600081815260d0602090815260408083208f845282528083209490945591815260d182528281208d825290915220546119a5908461208c565b6001600160a01b038716600090815260d1602090815260408083208e845282528083209390935560cd9052205460a086015114156119ef5760008a815260cb602052604090204290555b60608501516001600160a01b0316611a2557883414611a205760405162461bcd60e51b81526004016105d490612e31565b611a3f565b6060850151611a3f906001600160a01b031687308c611dab565b8015611aac5760408501516001600160a01b0316611a93576040516001600160a01b0387169082156108fc029083906000818181858888f19350505050158015611a8d573d6000803e3d6000fd5b50611aac565b6040850151611aac906001600160a01b03168783611ee3565b8315611b195760608501516001600160a01b0316611b00576040516001600160a01b0387169085156108fc029086906000818181858888f19350505050158015611afa573d6000803e3d6000fd5b50611b19565b6060850151611b19906001600160a01b03168786611ee3565b6000611b39670de0b6b3a76400006118b6611b32610b3f565b8790612010565b60008c815260d46020526040902054909150611b55908261208c565b60008c815260d46020526040812091909155611b718583611e09565b90508015611bf45760608701516001600160a01b0316611bce5786602001516001600160a01b03166108fc829081150290604051600060405180830381858888f19350505050158015611bc8573d6000803e3d6000fd5b50611bf4565b611bf487602001518289606001516001600160a01b0316611ee39092919063ffffffff16565b876001600160a01b03168c7f4f3e4a24c8af698786b58691f56000795f97c98a676488342ba813d788722689858486604051611c3293929190613030565b60405180910390a350506098805460ff1916600117905550505050505050505050565b611c5d611eb8565b6065546001600160a01b03908116911614611c8a5760405162461bcd60e51b81526004016105d490612cf4565b61106e83831882611ebc565b6c14dd185ad950dbdb9d1c9858dd609a1b60005260976020527f64b4bece0a6884013dd61733d0cecd1e6ead3e169c5dafae05953f524f2d93eb5490565b60d260209081526000928352604080842090915290825290205460ff1681565b611cfc611eb8565b6065546001600160a01b03908116911614611d295760405162461bcd60e51b81526004016105d490612cf4565b6001600160a01b038116611d4f5760405162461bcd60e51b81526004016105d490612a12565b6065546040516001600160a01b038084169216907f8be0079c531659141344cd1fd0a4f28419497f9722a3daafe3b4186f6b6457e090600090a3606580546001600160a01b0319166001600160a01b0392909216919091179055565b611e03846323b872dd60e01b858585604051602401611dcc93929190612954565b60408051601f198184030181529190526020810180516001600160e01b03166001600160e01b0319909316929092179091526120b1565b50505050565b6000611e4b83836040518060400160405280601e81526020017f536166654d6174683a207375627472616374696f6e206f766572666c6f770000815250612196565b9392505050565b60005b815181101561106e57600083815260d360205260408120835160019290859085908110611e7e57fe5b6020908102919091018101516001600160a01b03168252810191909152604001600020805460ff1916911515919091179055600101611e55565b3390565b6000828152609760205260409020548114610aaa5760009182526097602052604090912055565b61106e8363a9059cbb60e01b8484604051602401611dcc929190612978565b303b1590565b600054610100900460ff1680611f215750611f21611f02565b80611f2f575060005460ff16155b611f4b5760405162461bcd60e51b81526004016105d490612d8d565b600054610100900460ff16158015611f76576000805460ff1961ff0019909116610100171660011790555b611f7e6121c2565b611f86612243565b8015611271576000805461ff001916905550565b600054610100900460ff1680611fb35750611fb3611f02565b80611fc1575060005460ff16155b611fdd5760405162461bcd60e51b81526004016105d490612d8d565b600054610100900460ff16158015612008576000805460ff1961ff0019909116610100171660011790555b611f8661231d565b60008261201f57506000610f35565b8282028284828161202c57fe5b0414611e4b5760405162461bcd60e51b81526004016105d490612c7c565b6000611e4b83836040518060400160405280601a81526020017f536166654d6174683a206469766973696f6e206279207a65726f0000000000008152506123ac565b600082820183811015611e4b5760405162461bcd60e51b81526004016105d490612a58565b6120c3826001600160a01b03166123e3565b6120df5760405162461bcd60e51b81526004016105d490612f18565b60006060836001600160a01b0316836040516120fb9190612924565b6000604051808303816000865af19150503d8060008114612138576040519150601f19603f3d011682016040523d82523d6000602084013e61213d565b606091505b50915091508161215f5760405162461bcd60e51b81526004016105d490612b17565b805115611e03578080602001905181019061217a9190612673565b611e035760405162461bcd60e51b81526004016105d490612e97565b600081848411156121ba5760405162461bcd60e51b81526004016105d4919061299c565b505050900390565b600054610100900460ff16806121db57506121db611f02565b806121e9575060005460ff16155b6122055760405162461bcd60e51b81526004016105d490612d8d565b600054610100900460ff16158015611f86576000805460ff1961ff0019909116610100171660011790558015611271576000805461ff001916905550565b600054610100900460ff168061225c575061225c611f02565b8061226a575060005460ff16155b6122865760405162461bcd60e51b81526004016105d490612d8d565b600054610100900460ff161580156122b1576000805460ff1961ff0019909116610100171660011790555b60006122bb611eb8565b606580546001600160a01b0319166001600160a01b038316908117909155604051919250906000907f8be0079c531659141344cd1fd0a4f28419497f9722a3daafe3b4186f6b6457e0908290a3508015611271576000805461ff001916905550565b600054610100900460ff16806123365750612336611f02565b80612344575060005460ff16155b6123605760405162461bcd60e51b81526004016105d490612d8d565b600054610100900460ff1615801561238b576000805460ff1961ff0019909116610100171660011790555b6098805460ff191660011790558015611271576000805461ff001916905550565b600081836123cd5760405162461bcd60e51b81526004016105d4919061299c565b5060008385816123d957fe5b0495945050505050565b6000813f7fc5d2460186f7233c927e7db2dcc703c0e500b653ca82273b7bfad8045d85a47081811480159061241757508115155b949350505050565b6040518061012001604052806060815260200160006001600160a01b0316815260200160006001600160a01b0316815260200160006001600160a01b03168152602001600081526020016000815260200160008152602001600081526020016000151581525090565b828054600181600116156101000203166002900490600052602060002090601f016020900481019282601f106124c957805160ff19168380011785556124f6565b828001600101855582156124f6579182015b828111156124f65782518255916020019190600101906124db565b50612502929150612506565b5090565b5b808211156125025760008155600101612507565b80356001600160a01b0381168114610f3557600080fd5b600082601f830112612542578081fd5b813567ffffffffffffffff811115612558578182fd5b6020808202612568828201613046565b8381529350818401858301828701840188101561258457600080fd5b600092505b848310156125af5761259b888261251b565b825260019290920191908301908301612589565b505050505092915050565b8035610f3581613099565b600082601f8301126125d5578081fd5b813567ffffffffffffffff8111156125eb578182fd5b6125fe601f8201601f1916602001613046565b915080825283602082850101111561261557600080fd5b8060208401602084013760009082016020015292915050565b60006020828403121561263f578081fd5b611e4b838361251b565b6000806040838503121561265b578081fd5b612665848461251b565b946020939093013593505050565b600060208284031215612684578081fd5b8151611e4b81613099565b6000602082840312156126a0578081fd5b5035919050565b600080604083850312156126b9578182fd5b8235915060208301356001600160a01b03811681146126d6578182fd5b809150509250929050565b6000806000606084860312156126f5578081fd5b83359250612706856020860161251b565b9150604084013590509250925092565b60008060408385031215612728578182fd5b50508035926020909101359150565b60008060006060848603121561274b578283fd5b505081359360208301359350604090920135919050565b60008060408385031215612774578182fd5b823567ffffffffffffffff8082111561278b578384fd5b81850191506101208083880312156127a1578485fd5b6127aa81613046565b90508235828111156127ba578586fd5b6127c6888286016125c5565b8252506127d6876020850161251b565b60208201526127e8876040850161251b565b6040820152606083013560608201526080830135608082015260a083013560a082015260c083013560c08201526128228760e085016125ba565b60e0820152610100612836888286016125ba565b908201529350602085013591508082111561284f578283fd5b5061285c85828601612532565b9150509250929050565b600060208284031215612877578081fd5b5051919050565b60008060408385031215612890578182fd5b823591506128a1846020850161251b565b90509250929050565b600080604083850312156128bc578081fd5b82359150602083013567ffffffffffffffff8111156128d9578182fd5b61285c85828601612532565b6001600160a01b03169052565b15159052565b6000815180845261291081602086016020860161306d565b601f01601f19169290920160200192915050565b6000825161293681846020870161306d565b9190910192915050565b6001600160a01b0391909116815260200190565b6001600160a01b039384168152919092166020820152604081019190915260600190565b6001600160a01b03929092168252602082015260400190565b901515815260200190565b600060208252611e4b60208301846128f8565b60006101208083526129c38184018d6128f8565b6001600160a01b039b8c166020850152998b1660408401525050959097166060860152608085019390935260a084019190915260c083015260e082015291151561010090920191909152919050565b60208082526026908201527f4f776e61626c653a206e6577206f776e657220697320746865207a65726f206160408201526564647265737360d01b606082015260800190565b6020808252601b908201527f536166654d6174683a206164646974696f6e206f766572666c6f770000000000604082015260600190565b6020808252600d908201526c3737903832b936b4b9b9b4b7b760991b604082015260600190565b60208082526010908201526f696e76616c696420706f6f6c5479706560801b604082015260600190565b60208082526018908201527f7468697320706f6f6c20646f6573206e6f742065786973740000000000000000604082015260600190565b6020808252818101527f5361666545524332303a206c6f772d6c6576656c2063616c6c206661696c6564604082015260600190565b602080825260149082015273696e76616c696420616d6f756e74546f74616c3160601b604082015260600190565b6020808252601490820152730696e76616c696420616d6f756e74546f74616c360641b604082015260600190565b60208082526007908201526618db185a5b595960ca1b604082015260600190565b6020808252600e908201526d1a5b9d985b1a59081bdc195b905d60921b604082015260600190565b6020808252600b908201526a3737ba1031b932b0ba37b960a91b604082015260600190565b6020808252601590820152741b9bc81dda1a5d195b1a5cdd081a5b5c1bdc9d1959605a1b604082015260600190565b60208082526017908201527f73656e646572206e6f7420696e2077686974656c697374000000000000000000604082015260600190565b60208082526021908201527f536166654d6174683a206d756c7469706c69636174696f6e206f766572666c6f6040820152607760f81b606082015260800190565b6020808252601a908201527f6c656e677468206f66206e616d6520697320746f6f206c6f6e67000000000000604082015260600190565b6020808252818101527f4f776e61626c653a2063616c6c6572206973206e6f7420746865206f776e6572604082015260600190565b60208082526018908201527f646973616c6c6f7720636f6e74726163742063616c6c65720000000000000000604082015260600190565b6020808252601390820152727377617020616d6f756e74206973207a65726f60681b604082015260600190565b6020808252602e908201527f436f6e747261637420696e7374616e63652068617320616c726561647920626560408201526d195b881a5b9a5d1a585b1a5e995960921b606082015260800190565b602080825260159082015274082eac6e8d2dedc40d2e640dcdee840cadcdeeaced605b1b604082015260600190565b6020808252600d908201526c3837b7b6103737ba1037b832b760991b604082015260600190565b6020808252601590820152740d2dcecc2d8d2c840c2dadeeadce840decc408aa89605b1b604082015260600190565b6020808252601e908201527f6e6f7420737570706f7274206465666c6174696f6e61727920746f6b656e0000604082015260600190565b6020808252602a908201527f5361666545524332303a204552433230206f7065726174696f6e20646964206e6040820152691bdd081cdd58d8d9595960b21b606082015260800190565b6020808252601f908201527f5265656e7472616e637947756172643a207265656e7472616e742063616c6c00604082015260600190565b6020808252601f908201527f5361666545524332303a2063616c6c20746f206e6f6e2d636f6e747261637400604082015260600190565b6020808252600e908201526d1c1bdbdb0819194b5b1a5cdd195960921b604082015260600190565b6000602082528251610120806020850152612f966101408501836128f8565b91506020850151612faa60408601826128e5565b506040850151612fbd60608601826128e5565b506060850151612fd060808601826128e5565b50608085015160a085015260a085015160c085015260c085015160e085015260e085015161010081818701528087015191505061300f828601826128f2565b5090949350505050565b90815260200190565b918252602082015260400190565b9283526020830191909152604082015260600190565b60405181810167ffffffffffffffff8111828210171561306557600080fd5b604052919050565b60005b83811015613088578181015183820152602001613070565b83811115611e035750506000910152565b801515811461127157600080fdfea2646970667358221220c345673f790059443626dfb940dd77f89407569081be930b0b643ad4a6a2ebc364736f6c634300060c0033",
  "linkReferences": {},
  "deployedLinkReferences": {}
}