{
  "_format": "hh-sol-artifact-1",
  "contractName": "BounceFixedSwap",
  "sourceName": "contracts/BounceFixedSwap.sol",
  "abi": [
    {
      "anonymous": false,
      "inputs": [
        {
          "indexed": true,
          "internalType": "uint256",
          "name": "index",
          "type": "uint256"
        },
        {
          "indexed": true,
          "internalType": "address",
          "name": "sender",
          "type": "address"
        },
        {
          "indexed": false,
          "internalType": "uint256",
          "name": "amount0",
          "type": "uint256"
        },
        {
          "indexed": false,
          "internalType": "uint256",
          "name": "txFee",
          "type": "uint256"
        }
      ],
      "name": "Claimed",
      "type": "event"
    },
    {
      "anonymous": false,
      "inputs": [
        {
          "indexed": true,
          "internalType": "uint256",
          "name": "index",
          "type": "uint256"
        },
        {
          "indexed": true,
          "internalType": "address",
          "name": "sender",
          "type": "address"
        },
        {
          "components": [
            {
              "internalType": "string",
              "name": "name",
              "type": "string"
            },
            {
              "internalType": "address payable",
              "name": "creator",
              "type": "address"
            },
            {
              "internalType": "address",
              "name": "token0",
              "type": "address"
            },
            {
              "internalType": "address",
              "name": "token1",
              "type": "address"
            },
            {
              "internalType": "uint256",
              "name": "amountTotal0",
              "type": "uint256"
            },
            {
              "internalType": "uint256",
              "name": "amountTotal1",
              "type": "uint256"
            },
            {
              "internalType": "uint256",
              "name": "openAt",
              "type": "uint256"
            },
            {
              "internalType": "uint256",
              "name": "closeAt",
              "type": "uint256"
            },
            {
              "internalType": "uint256",
              "name": "claimAt",
              "type": "uint256"
            },
            {
              "internalType": "bool",
              "name": "enableWhiteList",
              "type": "bool"
            }
          ],
          "indexed": false,
          "internalType": "struct BounceFixedSwap.Pool",
          "name": "pool",
          "type": "tuple"
        }
      ],
      "name": "Created",
      "type": "event"
    },
    {
      "anonymous": false,
      "inputs": [
        {
          "indexed": true,
          "internalType": "address",
          "name": "previousOwner",
          "type": "address"
        },
        {
          "indexed": true,
          "internalType": "address",
          "name": "newOwner",
          "type": "address"
        }
      ],
      "name": "OwnershipTransferred",
      "type": "event"
    },
    {
      "anonymous": false,
      "inputs": [
        {
          "indexed": true,
          "internalType": "uint256",
          "name": "index",
          "type": "uint256"
        },
        {
          "indexed": true,
          "internalType": "address",
          "name": "sender",
          "type": "address"
        },
        {
          "indexed": false,
          "internalType": "uint256",
          "name": "amount0",
          "type": "uint256"
        },
        {
          "indexed": false,
          "internalType": "uint256",
          "name": "amount1",
          "type": "uint256"
        },
        {
          "indexed": false,
          "internalType": "uint256",
          "name": "txFee",
          "type": "uint256"
        }
      ],
      "name": "Swapped",
      "type": "event"
    },
    {
      "anonymous": false,
      "inputs": [
        {
          "indexed": true,
          "internalType": "uint256",
          "name": "index",
          "type": "uint256"
        },
        {
          "indexed": true,
          "internalType": "address",
          "name": "sender",
          "type": "address"
        },
        {
          "indexed": false,
          "internalType": "uint256",
          "name": "amount0",
          "type": "uint256"
        }
      ],
      "name": "UserClaimed",
      "type": "event"
    },
    {
      "inputs": [
        {
          "internalType": "uint256",
          "name": "index",
          "type": "uint256"
        },
        {
          "internalType": "address[]",
          "name": "whitelist_",
          "type": "address[]"
        }
      ],
      "name": "addWhitelist",
      "outputs": [],
      "stateMutability": "nonpayable",
      "type": "function"
    },
    {
      "inputs": [
        {
          "internalType": "uint256",
          "name": "",
          "type": "uint256"
        }
      ],
      "name": "amountSwap0P",
      "outputs": [
        {
          "internalType": "uint256",
          "name": "",
          "type": "uint256"
        }
      ],
      "stateMutability": "view",
      "type": "function"
    },
    {
      "inputs": [
        {
          "internalType": "uint256",
          "name": "",
          "type": "uint256"
        }
      ],
      "name": "amountSwap1P",
      "outputs": [
        {
          "internalType": "uint256",
          "name": "",
          "type": "uint256"
        }
      ],
      "stateMutability": "view",
      "type": "function"
    },
    {
      "inputs": [
        {
          "components": [
            {
              "internalType": "string",
              "name": "name",
              "type": "string"
            },
            {
              "internalType": "address",
              "name": "token0",
              "type": "address"
            },
            {
              "internalType": "address",
              "name": "token1",
              "type": "address"
            },
            {
              "internalType": "uint256",
              "name": "amountTotal0",
              "type": "uint256"
            },
            {
              "internalType": "uint256",
              "name": "amountTotal1",
              "type": "uint256"
            },
            {
              "internalType": "uint256",
              "name": "openAt",
              "type": "uint256"
            },
            {
              "internalType": "uint256",
              "name": "closeAt",
              "type": "uint256"
            },
            {
              "internalType": "uint256",
              "name": "claimAt",
              "type": "uint256"
            },
            {
              "internalType": "uint256",
              "name": "maxAmount1PerWallet",
              "type": "uint256"
            },
            {
              "internalType": "bool",
              "name": "onlyBot",
              "type": "bool"
            },
            {
              "internalType": "bool",
              "name": "enableWhiteList",
              "type": "bool"
            }
          ],
          "internalType": "struct BounceFixedSwap.CreateReq",
          "name": "poolReq",
          "type": "tuple"
        },
        {
          "internalType": "address[]",
          "name": "whitelist_",
          "type": "address[]"
        }
      ],
      "name": "create",
      "outputs": [],
      "stateMutability": "nonpayable",
      "type": "function"
    },
    {
      "inputs": [
        {
          "internalType": "uint256",
          "name": "index",
          "type": "uint256"
        }
      ],
      "name": "creatorClaim",
      "outputs": [],
      "stateMutability": "nonpayable",
      "type": "function"
    },
    {
      "inputs": [
        {
          "internalType": "address",
          "name": "",
          "type": "address"
        },
        {
          "internalType": "uint256",
          "name": "",
          "type": "uint256"
        }
      ],
      "name": "creatorClaimed",
      "outputs": [
        {
          "internalType": "bool",
          "name": "",
          "type": "bool"
        }
      ],
      "stateMutability": "view",
      "type": "function"
    },
    {
      "inputs": [
        {
          "internalType": "uint256",
          "name": "",
          "type": "uint256"
        }
      ],
      "name": "filledAtP",
      "outputs": [
        {
          "internalType": "uint256",
          "name": "",
          "type": "uint256"
        }
      ],
      "stateMutability": "view",
      "type": "function"
    },
    {
      "inputs": [],
      "name": "getBotToken",
      "outputs": [
        {
          "internalType": "address",
          "name": "",
          "type": "address"
        }
      ],
      "stateMutability": "view",
      "type": "function"
    },
    {
      "inputs": [
        {
          "internalType": "bytes32",
          "name": "key",
          "type": "bytes32"
        },
        {
          "internalType": "address",
          "name": "addr",
          "type": "address"
        }
      ],
      "name": "getConfig",
      "outputs": [
        {
          "internalType": "uint256",
          "name": "",
          "type": "uint256"
        }
      ],
      "stateMutability": "view",
      "type": "function"
    },
    {
      "inputs": [
        {
          "internalType": "bytes32",
          "name": "key",
          "type": "bytes32"
        }
      ],
      "name": "getConfig",
      "outputs": [
        {
          "internalType": "uint256",
          "name": "",
          "type": "uint256"
        }
      ],
      "stateMutability": "view",
      "type": "function"
    },
    {
      "inputs": [
        {
          "internalType": "bytes32",
          "name": "key",
          "type": "bytes32"
        },
        {
          "internalType": "uint256",
          "name": "index",
          "type": "uint256"
        }
      ],
      "name": "getConfig",
      "outputs": [
        {
          "internalType": "uint256",
          "name": "",
          "type": "uint256"
        }
      ],
      "stateMutability": "view",
      "type": "function"
    },
    {
      "inputs": [],
      "name": "getMinValueOfBotHolder",
      "outputs": [
        {
          "internalType": "uint256",
          "name": "",
          "type": "uint256"
        }
      ],
      "stateMutability": "view",
      "type": "function"
    },
    {
      "inputs": [],
      "name": "getPoolCount",
      "outputs": [
        {
          "internalType": "uint256",
          "name": "",
          "type": "uint256"
        }
      ],
      "stateMutability": "view",
      "type": "function"
    },
    {
      "inputs": [],
      "name": "getStakeContract",
      "outputs": [
        {
          "internalType": "address",
          "name": "",
          "type": "address"
        }
      ],
      "stateMutability": "view",
      "type": "function"
    },
    {
      "inputs": [],
      "name": "getTxFeeRatio",
      "outputs": [
        {
          "internalType": "uint256",
          "name": "",
          "type": "uint256"
        }
      ],
      "stateMutability": "view",
      "type": "function"
    },
    {
      "inputs": [],
      "name": "initialize",
      "outputs": [],
      "stateMutability": "nonpayable",
      "type": "function"
    },
    {
      "inputs": [],
      "name": "initialize_rinkeby",
      "outputs": [],
      "stateMutability": "nonpayable",
      "type": "function"
    },
    {
      "inputs": [
        {
          "internalType": "uint256",
          "name": "",
          "type": "uint256"
        }
      ],
      "name": "maxAmount1PerWalletP",
      "outputs": [
        {
          "internalType": "uint256",
          "name": "",
          "type": "uint256"
        }
      ],
      "stateMutability": "view",
      "type": "function"
    },
    {
      "inputs": [
        {
          "internalType": "address",
          "name": "",
          "type": "address"
        },
        {
          "internalType": "uint256",
          "name": "",
          "type": "uint256"
        }
      ],
      "name": "myAmountSwapped0",
      "outputs": [
        {
          "internalType": "uint256",
          "name": "",
          "type": "uint256"
        }
      ],
      "stateMutability": "view",
      "type": "function"
    },
    {
      "inputs": [
        {
          "internalType": "address",
          "name": "",
          "type": "address"
        },
        {
          "internalType": "uint256",
          "name": "",
          "type": "uint256"
        }
      ],
      "name": "myAmountSwapped1",
      "outputs": [
        {
          "internalType": "uint256",
          "name": "",
          "type": "uint256"
        }
      ],
      "stateMutability": "view",
      "type": "function"
    },
    {
      "inputs": [
        {
          "internalType": "address",
          "name": "",
          "type": "address"
        },
        {
          "internalType": "uint256",
          "name": "",
          "type": "uint256"
        }
      ],
      "name": "myClaimed",
      "outputs": [
        {
          "internalType": "bool",
          "name": "",
          "type": "bool"
        }
      ],
      "stateMutability": "view",
      "type": "function"
    },
    {
      "inputs": [
        {
          "internalType": "uint256",
          "name": "",
          "type": "uint256"
        }
      ],
      "name": "onlyBotHolderP",
      "outputs": [
        {
          "internalType": "bool",
          "name": "",
          "type": "bool"
        }
      ],
      "stateMutability": "view",
      "type": "function"
    },
    {
      "inputs": [],
      "name": "owner",
      "outputs": [
        {
          "internalType": "address",
          "name": "",
          "type": "address"
        }
      ],
      "stateMutability": "view",
      "type": "function"
    },
    {
      "inputs": [
        {
          "internalType": "uint256",
          "name": "",
          "type": "uint256"
        }
      ],
      "name": "pools",
      "outputs": [
        {
          "internalType": "string",
          "name": "name",
          "type": "string"
        },
        {
          "internalType": "address payable",
          "name": "creator",
          "type": "address"
        },
        {
          "internalType": "address",
          "name": "token0",
          "type": "address"
        },
        {
          "internalType": "address",
          "name": "token1",
          "type": "address"
        },
        {
          "internalType": "uint256",
          "name": "amountTotal0",
          "type": "uint256"
        },
        {
          "internalType": "uint256",
          "name": "amountTotal1",
          "type": "uint256"
        },
        {
          "internalType": "uint256",
          "name": "openAt",
          "type": "uint256"
        },
        {
          "internalType": "uint256",
          "name": "closeAt",
          "type": "uint256"
        },
        {
          "internalType": "uint256",
          "name": "claimAt",
          "type": "uint256"
        },
        {
          "internalType": "bool",
          "name": "enableWhiteList",
          "type": "bool"
        }
      ],
      "stateMutability": "view",
      "type": "function"
    },
    {
      "inputs": [
        {
          "internalType": "uint256",
          "name": "index",
          "type": "uint256"
        },
        {
          "internalType": "address[]",
          "name": "whitelist_",
          "type": "address[]"
        }
      ],
      "name": "removeWhitelist",
      "outputs": [],
      "stateMutability": "nonpayable",
      "type": "function"
    },
    {
      "inputs": [],
      "name": "renounceOwnership",
      "outputs": [],
      "stateMutability": "nonpayable",
      "type": "function"
    },
    {
      "inputs": [
        {
          "internalType": "bytes32",
          "name": "key",
          "type": "bytes32"
        },
        {
          "internalType": "uint256",
          "name": "value",
          "type": "uint256"
        }
      ],
      "name": "setConfig",
      "outputs": [],
      "stateMutability": "nonpayable",
      "type": "function"
    },
    {
      "inputs": [
        {
          "internalType": "bytes32",
          "name": "key",
          "type": "bytes32"
        },
        {
          "internalType": "address",
          "name": "addr",
          "type": "address"
        },
        {
          "internalType": "uint256",
          "name": "value",
          "type": "uint256"
        }
      ],
      "name": "setConfig",
      "outputs": [],
      "stateMutability": "nonpayable",
      "type": "function"
    },
    {
      "inputs": [
        {
          "internalType": "bytes32",
          "name": "key",
          "type": "bytes32"
        },
        {
          "internalType": "uint256",
          "name": "index",
          "type": "uint256"
        },
        {
          "internalType": "uint256",
          "name": "value",
          "type": "uint256"
        }
      ],
      "name": "setConfig",
      "outputs": [],
      "stateMutability": "nonpayable",
      "type": "function"
    },
    {
      "inputs": [
        {
          "internalType": "uint256",
          "name": "index",
          "type": "uint256"
        },
        {
          "internalType": "uint256",
          "name": "amount1",
          "type": "uint256"
        }
      ],
      "name": "swap",
      "outputs": [],
      "stateMutability": "payable",
      "type": "function"
    },
    {
      "inputs": [
        {
          "internalType": "address",
          "name": "newOwner",
          "type": "address"
        }
      ],
      "name": "transferOwnership",
      "outputs": [],
      "stateMutability": "nonpayable",
      "type": "function"
    },
    {
      "inputs": [
        {
          "internalType": "uint256",
          "name": "",
          "type": "uint256"
        }
      ],
      "name": "txFeeP",
      "outputs": [
        {
          "internalType": "uint256",
          "name": "",
          "type": "uint256"
        }
      ],
      "stateMutability": "view",
      "type": "function"
    },
    {
      "inputs": [
        {
          "internalType": "uint256",
          "name": "index",
          "type": "uint256"
        }
      ],
      "name": "userClaim",
      "outputs": [],
      "stateMutability": "nonpayable",
      "type": "function"
    },
    {
      "inputs": [
        {
          "internalType": "uint256",
          "name": "",
          "type": "uint256"
        },
        {
          "internalType": "address",
          "name": "",
          "type": "address"
        }
      ],
      "name": "whitelistP",
      "outputs": [
        {
          "internalType": "bool",
          "name": "",
          "type": "bool"
        }
      ],
      "stateMutability": "view",
      "type": "function"
    }
  ],
  "bytecode": "0x608060405234801561001057600080fd5b50613798806100206000396000f3fe6080604052600436106101f95760003560e01c80638d0929af1161010d578063c7011b7b116100a0578063dfd29d9e1161006f578063dfd29d9e14610581578063e34be38a14610596578063e4710390146105b6578063f2fde38b146105d6578063fe43efda146105f6576101f9565b8063c7011b7b14610519578063cc786a801461052e578063d96073cf1461054e578063ddf2be3f14610561576101f9565b8063a5ed536f116100dc578063a5ed536f14610483578063ac4afa38146104a3578063b21544f3146104d9578063c6472b12146104f9576101f9565b80638d0929af146103ff5780638da5cb5b1461042c5780638ec872e31461044e5780638eec5d701461046e576101f9565b8063636b047511610190578063715018a61161015f578063715018a6146103755780638129fc1c1461038a578063867ed9321461039f5780638aa1e44e146103bf5780638cfbe9d5146103df576101f9565b8063636b04751461030057806363cb6c42146103205780636c221098146103355780636dd5b69d14610355576101f9565b8063211f4191116101cc578063211f4191146102805780632ad540ed146102a057806352665f47146102c057806354864415146102e0576101f9565b8063110808a6146101fe57806315fe96dc146102345780631a1db142146102565780631bb2dd6c1461026b575b600080fd5b34801561020a57600080fd5b5061021e610219366004612c2c565b610616565b60405161022b91906136d4565b60405180910390f35b34801561024057600080fd5b5061025461024f366004612cb3565b610628565b005b34801561026257600080fd5b50610254610674565b34801561027757600080fd5b5061021e610705565b34801561028c57600080fd5b5061021e61029b366004612be6565b610740565b3480156102ac57600080fd5b506102546102bb366004612c2c565b61075d565b3480156102cc57600080fd5b5061021e6102db366004612c44565b610aca565b3480156102ec57600080fd5b5061021e6102fb366004612c2c565b610aec565b34801561030c57600080fd5b5061021e61031b366004612c2c565b610afe565b34801561032c57600080fd5b5061021e610b10565b34801561034157600080fd5b50610254610350366004612e5e565b610b54565b34801561036157600080fd5b5061021e610370366004612c2c565b610c59565b34801561038157600080fd5b50610254610c6b565b34801561039657600080fd5b50610254610cea565b3480156103ab57600080fd5b506102546103ba366004612cff565b610e5a565b3480156103cb57600080fd5b506102546103da366004612e5e565b6112ee565b3480156103eb57600080fd5b5061021e6103fa366004612c2c565b611398565b34801561040b57600080fd5b5061041f61041a366004612e32565b6113aa565b60405161022b9190612f5f565b34801561043857600080fd5b506104416113ca565b60405161022b9190612ef4565b34801561045a57600080fd5b5061021e610469366004612cb3565b6113d9565b34801561047a57600080fd5b5061021e6113ec565b34801561048f57600080fd5b5061021e61049e366004612be6565b6113f2565b3480156104af57600080fd5b506104c36104be366004612c2c565b61140f565b60405161022b9a99989796959493929190612f7d565b3480156104e557600080fd5b506102546104f4366004612c7e565b61150d565b34801561050557600080fd5b5061041f610514366004612c2c565b611557565b34801561052557600080fd5b5061044161156c565b34801561053a57600080fd5b5061041f610549366004612be6565b6115a5565b61025461055c366004612cb3565b6115c5565b34801561056d57600080fd5b5061025461057c366004612cd4565b611d95565b34801561058d57600080fd5b50610441611dd6565b3480156105a257600080fd5b5061021e6105b1366004612c2c565b611e14565b3480156105c257600080fd5b5061041f6105d1366004612be6565b611e26565b3480156105e257600080fd5b506102546105f1366004612bcb565b611e46565b34801561060257600080fd5b50610254610611366004612c2c565b611efd565b60d56020526000908152604090205481565b61063061227e565b6065546001600160a01b039081169116146106665760405162461bcd60e51b815260040161065d906132a0565b60405180910390fd5b6106708282612282565b5050565b61067c610cea565b6097602052735e26fa0fe067d28aae8aff2fb85ac2e693bd9efa7ff8b521af4c41c6b3e43bbe26aab946504bdf758af1f0e92e5d8b88bb0e6286b4556c14dd185ad950dbdb9d1c9858dd609a1b60005273a77a9fcba2ae5599e0054369d1655d186020ece17f64b4bece0a6884013dd61733d0cecd1e6ead3e169c5dafae05953f524f2d93eb55565b695478466565526174696f60b01b60005260976020527fc7b252fd6e9303929060a312da400a79593f0b4303aa45dbfd24e4c5d4fdb2c75490565b60d260209081526000928352604080842090915290825290205481565b60985460ff1661077f5760405162461bcd60e51b815260040161065d906134fc565b6098805460ff1916905560ca54819081106107ac5760405162461bcd60e51b815260040161065d9061308a565b814260ca82815481106107bb57fe5b90600052602060002090600a02016007015411156107eb5760405162461bcd60e51b815260040161065d906135ec565b6107f36129b5565b60ca848154811061080057fe5b600091825260209182902060408051600a93909302909101805460026001821615610100026000190190911604601f810185900490940283016101609081019092526101408301848152929390928492909184918401828280156108a55780601f1061087a576101008083540402835291602001916108a5565b820191906000526020600020905b81548152906001019060200180831161088857829003601f168201915b505050918352505060018201546001600160a01b039081166020808401919091526002840154821660408085019190915260038501548316606085015260048501546080850152600585015460a0850152600685015460c0850152600785015460e0850152600885015461010085015260099094015460ff90811615156101209094019390935284810151909116600090815260d082528381208982529091529190912054919250161561096b5760405162461bcd60e51b815260040161065d906131a8565b6020808201516001600160a01b0316600090815260d0825260408082208783528352808220805460ff1916600117905560d5909252205415610a285760608101516001600160a01b0316610a28576109c1611dd6565b6001600160a01b0316635ec2dc8d60d56000878152602001908152602001600020546040518263ffffffff1660e01b81526004016000604051808303818588803b158015610a0e57600080fd5b505af1158015610a22573d6000803e3d6000fd5b50505050505b600084815260cc60205260409020546080820151038015610a6957610a6982602001518284604001516001600160a01b03166122a99092919063ffffffff16565b600085815260d5602052604090819020549051339187917fd9cb1e2714d65a111c0f20f060176ad657496bd47a3de04ec7c3d4ca232112ac91610aae918691906136dd565b60405180910390a350506098805460ff19166001179055505050565b6001600160a01b03811682186000908152609760205260409020545b92915050565b60cb6020526000908152604090205481565b60cd6020526000908152604090205481565b7226b4b72b30b63ab2a7b32137ba2437b63232b960691b60005260976020527f6f70148f50089d4ed11c0858ac83480e86d3072d5886171be93c6c4ba59fe6905490565b610b5c61227e565b6065546001600160a01b03908116911614610b895760405162461bcd60e51b815260040161065d906132a0565b33610b926113ca565b6001600160a01b03161480610bd85750336001600160a01b031660ca8381548110610bb957fe5b600091825260209091206001600a9092020101546001600160a01b0316145b610bf45760405162461bcd60e51b815260040161065d90613063565b60005b8151811015610c545760d460008481526020019081526020016000206000838381518110610c2157fe5b6020908102919091018101516001600160a01b03168252810191909152604001600020805460ff19169055600101610bf7565b505050565b60009081526097602052604090205490565b610c7361227e565b6065546001600160a01b03908116911614610ca05760405162461bcd60e51b815260040161065d906132a0565b6065546040516000916001600160a01b0316907f8be0079c531659141344cd1fd0a4f28419497f9722a3daafe3b4186f6b6457e0908390a3606580546001600160a01b0319169055565b600054610100900460ff1680610d035750610d036122ff565b80610d11575060005460ff16155b610d2d5760405162461bcd60e51b815260040161065d90613302565b600054610100900460ff16158015610d58576000805460ff1961ff0019909116610100171660011790555b610d60612305565b610d68612397565b609760205266354a6ba7a180007fc7b252fd6e9303929060a312da400a79593f0b4303aa45dbfd24e4c5d4fdb2c755680340aad21b3b7000007f6f70148f50089d4ed11c0858ac83480e86d3072d5886171be93c6c4ba59fe6905573a9b1eb5908cfc3cdf91f9b8b3a741085980090967ff8b521af4c41c6b3e43bbe26aab946504bdf758af1f0e92e5d8b88bb0e6286b4556c14dd185ad950dbdb9d1c9858dd609a1b6000527398945bc69a554f8b129b09ac8afdc2cc2431c48e7f64b4bece0a6884013dd61733d0cecd1e6ead3e169c5dafae05953f524f2d93eb558015610e57576000805461ff00191690555b50565b60985460ff16610e7c5760405162461bcd60e51b815260040161065d906134fc565b6098805460ff1916905560ca546060830151610eaa5760405162461bcd60e51b815260040161065d9061317a565b6080830151610ecb5760405162461bcd60e51b815260040161065d9061314c565b428360a001511015610eef5760405162461bcd60e51b815260040161065d906131c9565b8260a001518360c0015111610f165760405162461bcd60e51b815260040161065d9061337f565b60e08301511580610f2f57508260c001518360e0015110155b610f4b5760405162461bcd60e51b815260040161065d9061337f565b825151600f1015610f6e5760405162461bcd60e51b815260040161065d90613269565b61010083015115610f8f57610100830151600082815260cf60205260409020555b82610120015115610fbe57610120830151600082815260ce60205260409020805460ff19169115159190911790555b60208301516040516370a0823160e01b81526000906001600160a01b038316906370a0823190610ff2903090600401612ef4565b60206040518083038186803b15801561100a57600080fd5b505afa15801561101e573d6000803e3d6000fd5b505050506040513d601f19601f820116820180604052508101906110429190612e1a565b905061106833308760600151856001600160a01b031661240d909392919063ffffffff16565b84606001516110f382846001600160a01b03166370a08231306040518263ffffffff1660e01b815260040161109d9190612ef4565b60206040518083038186803b1580156110b557600080fd5b505afa1580156110c9573d6000803e3d6000fd5b505050506040513d601f19601f820116820180604052508101906110ed9190612e1a565b90612434565b146111105760405162461bcd60e51b815260040161065d90613454565b6111256001600160a01b03831630600061247d565b61112f8385612540565b6111376129b5565b8551815233602080830191909152808701516001600160a01b039081166040808501919091528801511660608084019190915287015160808084019190915287015160a08084019190915287015160c08084019190915287015160e080840191909152870151610100830152610140870151151561012083015260ca8054600181018255600091909152825180518493600a9093027f42d72674974f694b5f5159593243114d38a5c39c89d6b62fee061ff523240ee101926111fd928492910190612a25565b5060208201516001820180546001600160a01b03199081166001600160a01b03938416179091556040808501516002850180548416918516919091179055606085015160038501805490931693169290921790556080830151600483015560a0830151600583015560c0830151600683015560e083015160078301556101008301516008830155610120909201516009909101805460ff191691151591909117905551339085907f418c60f37c543b8604a5c8e9ed05d35360d4b4c7e563ba6ff42c7674960b5cc9906112d1908590613623565b60405180910390a350506098805460ff1916600117905550505050565b6112f661227e565b6065546001600160a01b039081169116146113235760405162461bcd60e51b815260040161065d906132a0565b3361132c6113ca565b6001600160a01b031614806113725750336001600160a01b031660ca838154811061135357fe5b600091825260209091206001600a9092020101546001600160a01b0316145b61138e5760405162461bcd60e51b815260040161065d90613063565b6106708282612540565b60cc6020526000908152604090205481565b60d460209081526000928352604080842090915290825290205460ff1681565b6065546001600160a01b031690565b1860009081526097602052604090205490565b60ca5490565b60d160209081526000928352604080842090915290825290205481565b60ca818154811061141c57fe5b6000918252602091829020600a919091020180546040805160026001841615610100026000190190931692909204601f8101859004850283018501909152808252919350918391908301828280156114b55780601f1061148a576101008083540402835291602001916114b5565b820191906000526020600020905b81548152906001019060200180831161149857829003601f168201915b50505060018401546002850154600386015460048701546005880154600689015460078a015460088b01546009909b0154999a6001600160a01b039788169a9688169950949096169650919490939192909160ff168a565b61151561227e565b6065546001600160a01b039081169116146115425760405162461bcd60e51b815260040161065d906132a0565b610c546001600160a01b038316841882612282565b60ce6020526000908152604090205460ff1681565b672137ba2a37b5b2b760c11b60005260976020527ff8b521af4c41c6b3e43bbe26aab946504bdf758af1f0e92e5d8b88bb0e6286b45490565b60d060209081526000928352604080842090915290825290205460ff1681565b60985460ff166115e75760405162461bcd60e51b815260040161065d906134fc565b6098805460ff1916905560ca54829081106116145760405162461bcd60e51b815260040161065d9061308a565b824260ca828154811061162357fe5b90600052602060002090600a020160070154116116525760405162461bcd60e51b815260040161065d9061311f565b600084815260ce6020526040902054849060ff161561171457611673610b10565b61167b61156c565b6001600160a01b03166370a08231336040518263ffffffff1660e01b81526004016116a69190612ef4565b60206040518083038186803b1580156116be57600080fd5b505afa1580156116d2573d6000803e3d6000fd5b505050506040513d601f19601f820116820180604052508101906116f69190612e1a565b10156117145760405162461bcd60e51b815260040161065d90613350565b3361171d6129b5565b60ca878154811061172a57fe5b600091825260209182902060408051600a93909302909101805460026001821615610100026000190190911604601f810185900490940283016101609081019092526101408301848152929390928492909184918401828280156117cf5780601f106117a4576101008083540402835291602001916117cf565b820191906000526020600020905b8154815290600101906020018083116117b257829003601f168201915b505050918352505060018201546001600160a01b039081166020830152600283015481166040830152600383015416606082015260048201546080820152600582015460a0820152600682015460c0820152600782015460e0820152600882015461010082015260099091015460ff161515610120918201528101519091501561189557600087815260d4602090815260408083206001600160a01b038616845290915290205460ff166118955760405162461bcd60e51b815260040161065d906131f1565b428160c0015111156118b95760405162461bcd60e51b815260040161065d906133a8565b600087815260cd602052604090205460a0820151116118ea5760405162461bcd60e51b815260040161065d906132d5565b600087815260cd602052604081205460a0830151829161190a9190612434565b9050878110156119255761191e8882612434565b9150611928565b50865b600061194f8460a001516119498660800151856125a690919063ffffffff16565b906125e0565b60008b815260cc60205260408120546080870151929350909161197191612434565b9050818110156119a25760648183031161199d5760405162461bcd60e51b815260040161065d90613533565b6119a5565b50805b60008b815260cc60205260409020546119be9082612622565b60008c815260cc602090815260408083209390935560cd905220546119e39084612622565b60008c815260cd60209081526040808320939093556001600160a01b038916825260d181528282208e835290522054611a1c9082612622565b6001600160a01b038716600090815260d1602090815260408083208f845282528083209390935560cf9052205415611af85760008b815260cf60209081526040808320546001600160a01b038a16845260d283528184208f855290925290912054611a879085612622565b1115611aa55760405162461bcd60e51b815260040161065d906133cf565b6001600160a01b038616600090815260d2602090815260408083208e8452909152902054611ad39084612622565b6001600160a01b038716600090815260d2602090815260408083208f84529091529020555b60008b815260cd602052604090205460a08601511415611b245760008b815260cb602052604090204290555b60608501516001600160a01b0316611b5a57893414611b555760405162461bcd60e51b815260040161065d90613425565b611b74565b6060850151611b74906001600160a01b031687308d61240d565b610100850151611beb578015611beb5760408501516001600160a01b0316611bd2576040516001600160a01b0387169082156108fc029083906000818181858888f19350505050158015611bcc573d6000803e3d6000fd5b50611beb565b6040850151611beb906001600160a01b031687836122a9565b8315611c585760608501516001600160a01b0316611c3f576040516001600160a01b0387169085156108fc029086906000818181858888f19350505050158015611c39573d6000803e3d6000fd5b50611c58565b6060850151611c58906001600160a01b031687866122a9565b6000611c78670de0b6b3a7640000611949611c71610705565b87906125a6565b60008d815260d56020526040902054909150611c949082612622565b60008d815260d56020526040812091909155611cb08583612434565b90508015611d335760608701516001600160a01b0316611d0d5786602001516001600160a01b03166108fc829081150290604051600060405180830381858888f19350505050158015611d07573d6000803e3d6000fd5b50611d33565b611d3387602001518289606001516001600160a01b03166122a99092919063ffffffff16565b876001600160a01b03168d7f4f3e4a24c8af698786b58691f56000795f97c98a676488342ba813d788722689858486604051611d71939291906136eb565b60405180910390a350506098805460ff191660011790555050505050505050505050565b611d9d61227e565b6065546001600160a01b03908116911614611dca5760405162461bcd60e51b815260040161065d906132a0565b610c5483831882612282565b6c14dd185ad950dbdb9d1c9858dd609a1b60005260976020527f64b4bece0a6884013dd61733d0cecd1e6ead3e169c5dafae05953f524f2d93eb5490565b60cf6020526000908152604090205481565b60d360209081526000928352604080842090915290825290205460ff1681565b611e4e61227e565b6065546001600160a01b03908116911614611e7b5760405162461bcd60e51b815260040161065d906132a0565b6001600160a01b038116611ea15760405162461bcd60e51b815260040161065d90612fe6565b6065546040516001600160a01b038084169216907f8be0079c531659141344cd1fd0a4f28419497f9722a3daafe3b4186f6b6457e090600090a3606580546001600160a01b0319166001600160a01b0392909216919091179055565b60985460ff16611f1f5760405162461bcd60e51b815260040161065d906134fc565b6098805460ff1916905560ca5481908110611f4c5760405162461bcd60e51b815260040161065d9061308a565b8160ca8181548110611f5a57fe5b90600052602060002090600a02016008015460001415611f8c5760405162461bcd60e51b815260040161065d906134d5565b4260ca8281548110611f9a57fe5b90600052602060002090600a0201600801541115611fca5760405162461bcd60e51b815260040161065d906130c1565b611fd26129b5565b60ca8481548110611fdf57fe5b600091825260209182902060408051600a93909302909101805460026001821615610100026000190190911604601f810185900490940283016101609081019092526101408301848152929390928492909184918401828280156120845780601f1061205957610100808354040283529160200191612084565b820191906000526020600020905b81548152906001019060200180831161206757829003601f168201915b505050918352505060018201546001600160a01b03908116602080840191909152600284015482166040808501919091526003850154909216606084015260048401546080840152600584015460a0840152600684015460c0840152600784015460e0840152600884015461010084015260099093015460ff90811615156101209093019290925233600081815260d385528281208a8252909452922054929350909116156121455760405162461bcd60e51b815260040161065d906131a8565b6001600160a01b038116600081815260d3602090815260408083208984528252808320805460ff1916600117905592825260d1815282822088835290522054156122285760408201516001600160a01b03166121f0576001600160a01b038116600090815260d160209081526040808320888452909152808220549051339282156108fc02929190818181858888f193505050501580156121ea573d6000803e3d6000fd5b50612228565b6001600160a01b03808216600090815260d16020908152604080832089845290915290819020549084015161222892169033906122a9565b6001600160a01b038116600081815260d1602090815260408083208984529091529081902054905187917fff29b281372993483c1ce6b621ae07832d519c2294e43340f051312701ad132a91610aae91906136d4565b3390565b60008281526097602052604090205481146106705760009182526097602052604090912055565b610c548363a9059cbb60e01b84846040516024016122c8929190612f46565b60408051601f198184030181529190526020810180516001600160e01b03166001600160e01b031990931692909217909152612647565b303b1590565b600054610100900460ff168061231e575061231e6122ff565b8061232c575060005460ff16155b6123485760405162461bcd60e51b815260040161065d90613302565b600054610100900460ff16158015612373576000805460ff1961ff0019909116610100171660011790555b61237b61272c565b6123836127ad565b8015610e57576000805461ff001916905550565b600054610100900460ff16806123b057506123b06122ff565b806123be575060005460ff16155b6123da5760405162461bcd60e51b815260040161065d90613302565b600054610100900460ff16158015612405576000805460ff1961ff0019909116610100171660011790555b612383612887565b61242e846323b872dd60e01b8585856040516024016122c893929190612f22565b50505050565b600061247683836040518060400160405280601e81526020017f536166654d6174683a207375627472616374696f6e206f766572666c6f770000815250612916565b9392505050565b8015806125055750604051636eb1769f60e11b81526001600160a01b0384169063dd62ed3e906124b39030908690600401612f08565b60206040518083038186803b1580156124cb57600080fd5b505afa1580156124df573d6000803e3d6000fd5b505050506040513d601f19601f820116820180604052508101906125039190612e1a565b155b6125215760405162461bcd60e51b815260040161065d9061355f565b610c548363095ea7b360e01b84846040516024016122c8929190612f46565b60005b8151811015610c5457600083815260d46020526040812083516001929085908590811061256c57fe5b6020908102919091018101516001600160a01b03168252810191909152604001600020805460ff1916911515919091179055600101612543565b6000826125b557506000610ae6565b828202828482816125c257fe5b04146124765760405162461bcd60e51b815260040161065d90613228565b600061247683836040518060400160405280601a81526020017f536166654d6174683a206469766973696f6e206279207a65726f000000000000815250612942565b6000828201838110156124765760405162461bcd60e51b815260040161065d9061302c565b612659826001600160a01b0316612979565b6126755760405162461bcd60e51b815260040161065d906135b5565b60006060836001600160a01b0316836040516126919190612ed8565b6000604051808303816000865af19150503d80600081146126ce576040519150601f19603f3d011682016040523d82523d6000602084013e6126d3565b606091505b5091509150816126f55760405162461bcd60e51b815260040161065d906130ea565b80511561242e57808060200190518101906127109190612c10565b61242e5760405162461bcd60e51b815260040161065d9061348b565b600054610100900460ff168061274557506127456122ff565b80612753575060005460ff16155b61276f5760405162461bcd60e51b815260040161065d90613302565b600054610100900460ff16158015612383576000805460ff1961ff0019909116610100171660011790558015610e57576000805461ff001916905550565b600054610100900460ff16806127c657506127c66122ff565b806127d4575060005460ff16155b6127f05760405162461bcd60e51b815260040161065d90613302565b600054610100900460ff1615801561281b576000805460ff1961ff0019909116610100171660011790555b600061282561227e565b606580546001600160a01b0319166001600160a01b038316908117909155604051919250906000907f8be0079c531659141344cd1fd0a4f28419497f9722a3daafe3b4186f6b6457e0908290a3508015610e57576000805461ff001916905550565b600054610100900460ff16806128a057506128a06122ff565b806128ae575060005460ff16155b6128ca5760405162461bcd60e51b815260040161065d90613302565b600054610100900460ff161580156128f5576000805460ff1961ff0019909116610100171660011790555b6098805460ff191660011790558015610e57576000805461ff001916905550565b6000818484111561293a5760405162461bcd60e51b815260040161065d9190612f6a565b505050900390565b600081836129635760405162461bcd60e51b815260040161065d9190612f6a565b50600083858161296f57fe5b0495945050505050565b6000813f7fc5d2460186f7233c927e7db2dcc703c0e500b653ca82273b7bfad8045d85a4708181148015906129ad57508115155b949350505050565b6040518061014001604052806060815260200160006001600160a01b0316815260200160006001600160a01b0316815260200160006001600160a01b0316815260200160008152602001600081526020016000815260200160008152602001600081526020016000151581525090565b828054600181600116156101000203166002900490600052602060002090601f016020900481019282601f10612a6657805160ff1916838001178555612a93565b82800160010185558215612a93579182015b82811115612a93578251825591602001919060010190612a78565b50612a9f929150612aa3565b5090565b5b80821115612a9f5760008155600101612aa4565b80356001600160a01b0381168114610ae657600080fd5b600082601f830112612adf578081fd5b813567ffffffffffffffff811115612af5578182fd5b6020808202612b05828201613701565b83815293508184018583018287018401881015612b2157600080fd5b600092505b84831015612b4c57612b388882612ab8565b825260019290920191908301908301612b26565b505050505092915050565b8035610ae681613754565b600082601f830112612b72578081fd5b813567ffffffffffffffff811115612b88578182fd5b612b9b601f8201601f1916602001613701565b9150808252836020828501011115612bb257600080fd5b8060208401602084013760009082016020015292915050565b600060208284031215612bdc578081fd5b6124768383612ab8565b60008060408385031215612bf8578081fd5b612c028484612ab8565b946020939093013593505050565b600060208284031215612c21578081fd5b815161247681613754565b600060208284031215612c3d578081fd5b5035919050565b60008060408385031215612c56578182fd5b8235915060208301356001600160a01b0381168114612c73578182fd5b809150509250929050565b600080600060608486031215612c92578081fd5b83359250612ca38560208601612ab8565b9150604084013590509250925092565b60008060408385031215612cc5578182fd5b50508035926020909101359150565b600080600060608486031215612ce8578283fd5b505081359360208301359350604090920135919050565b60008060408385031215612d11578182fd5b823567ffffffffffffffff80821115612d28578384fd5b8185019150610160808388031215612d3e578485fd5b612d4781613701565b9050823582811115612d57578586fd5b612d6388828601612b62565b825250612d738760208501612ab8565b6020820152612d858760408501612ab8565b6040820152606083013560608201526080830135608082015260a083013560a082015260c083013560c082015260e083013560e0820152610100808401358183015250610120612dd788828601612b57565b90820152610140612dea88858301612b57565b9082015293506020850135915080821115612e03578283fd5b50612e1085828601612acf565b9150509250929050565b600060208284031215612e2b578081fd5b5051919050565b60008060408385031215612e44578182fd5b82359150612e558460208501612ab8565b90509250929050565b60008060408385031215612e70578182fd5b82359150602083013567ffffffffffffffff811115612e8d578182fd5b612e1085828601612acf565b6001600160a01b03169052565b15159052565b60008151808452612ec4816020860160208601613728565b601f01601f19169290920160200192915050565b60008251612eea818460208701613728565b9190910192915050565b6001600160a01b0391909116815260200190565b6001600160a01b0392831681529116602082015260400190565b6001600160a01b039384168152919092166020820152604081019190915260600190565b6001600160a01b03929092168252602082015260400190565b901515815260200190565b6000602082526124766020830184612eac565b6000610140808352612f918184018e612eac565b6001600160a01b039c8d1660208501529a8c1660408401525050969098166060870152608086019490945260a085019290925260c084015260e083015261010082015291151561012090920191909152919050565b60208082526026908201527f4f776e61626c653a206e6577206f776e657220697320746865207a65726f206160408201526564647265737360d01b606082015260800190565b6020808252601b908201527f536166654d6174683a206164646974696f6e206f766572666c6f770000000000604082015260600190565b6020808252600d908201526c3737903832b936b4b9b9b4b7b760991b604082015260600190565b60208082526018908201527f7468697320706f6f6c20646f6573206e6f742065786973740000000000000000604082015260600190565b6020808252600f908201526e636c61696d206e6f7420726561647960881b604082015260600190565b6020808252818101527f5361666545524332303a206c6f772d6c6576656c2063616c6c206661696c6564604082015260600190565b6020808252601390820152721d1a1a5cc81c1bdbdb081a5cc818db1bdcd959606a1b604082015260600190565b602080825260149082015273696e76616c696420616d6f756e74546f74616c3160601b604082015260600190565b6020808252601490820152730696e76616c696420616d6f756e74546f74616c360641b604082015260600190565b60208082526007908201526618db185a5b595960ca1b604082015260600190565b6020808252600e908201526d1a5b9d985b1a59081bdc195b905d60921b604082015260600190565b60208082526017908201527f73656e646572206e6f7420696e2077686974656c697374000000000000000000604082015260600190565b60208082526021908201527f536166654d6174683a206d756c7469706c69636174696f6e206f766572666c6f6040820152607760f81b606082015260800190565b6020808252601a908201527f6c656e677468206f66206e616d6520697320746f6f206c6f6e67000000000000604082015260600190565b6020808252818101527f4f776e61626c653a2063616c6c6572206973206e6f7420746865206f776e6572604082015260600190565b6020808252601390820152727377617020616d6f756e74206973207a65726f60681b604082015260600190565b6020808252602e908201527f436f6e747261637420696e7374616e63652068617320616c726561647920626560408201526d195b881a5b9a5d1a585b1a5e995960921b606082015260800190565b602080825260159082015274082eac6e8d2dedc40d2e640dcdee840cadcdeeaced605b1b604082015260600190565b6020808252600f908201526e1a5b9d985b1a590818db1bdcd9505d608a1b604082015260600190565b6020808252600d908201526c3837b7b6103737ba1037b832b760991b604082015260600190565b60208082526036908201527f7377617070656420616d6f756e74206f6620746f6b656e31206973206578636560408201527565646564206d6178696d756d20616c6c6f77616e636560501b606082015260800190565b6020808252601590820152740d2dcecc2d8d2c840c2dadeeadce840decc408aa89605b1b604082015260600190565b6020808252601e908201527f6e6f7420737570706f7274206465666c6174696f6e61727920746f6b656e0000604082015260600190565b6020808252602a908201527f5361666545524332303a204552433230206f7065726174696f6e20646964206e6040820152691bdd081cdd58d8d9595960b21b606082015260800190565b6020808252600d908201526c696e76616c696420636c61696d60981b604082015260600190565b6020808252601f908201527f5265656e7472616e637947756172643a207265656e7472616e742063616c6c00604082015260600190565b602080825260129082015271616d6f756e743020697320746f6f2062696760701b604082015260600190565b60208082526036908201527f5361666545524332303a20617070726f76652066726f6d206e6f6e2d7a65726f60408201527520746f206e6f6e2d7a65726f20616c6c6f77616e636560501b606082015260800190565b6020808252601f908201527f5361666545524332303a2063616c6c20746f206e6f6e2d636f6e747261637400604082015260600190565b60208082526017908201527f7468697320706f6f6c206973206e6f7420636c6f736564000000000000000000604082015260600190565b6000602082528251610140806020850152613642610160850183612eac565b915060208501516136566040860182612e99565b5060408501516136696060860182612e99565b50606085015161367c6080860182612e99565b50608085015160a085015260a085015160c085015260c085015160e085015260e08501516101008181870152808701519150506101208181870152808701519150506136ca82860182612ea6565b5090949350505050565b90815260200190565b918252602082015260400190565b9283526020830191909152604082015260600190565b60405181810167ffffffffffffffff8111828210171561372057600080fd5b604052919050565b60005b8381101561374357818101518382015260200161372b565b8381111561242e5750506000910152565b8015158114610e5757600080fdfea264697066735822122016e4a281b0cfff31af81180d4ebc14267b8c555478b8eb063dfc171bd15fe24264736f6c634300060c0033",
  "linkReferences": {},
  "deployedLinkReferences": {}
}